:100000000C94000118950000189500001895000048
:10001000189500001895000018950000189500002C
:10002000189500001895000018950000189500001C
:10003000189500001895000018950000189500000C
:100040000C94DE250C9405260C942C260C94532637
:1000500018950000189500001895000018950000EC
:1000600018950000189500001895000018950000DC
:100070000C945F1B1895000018950000189500005F
:1000800018950000189500001895000018950000BC
:1000900018950000189500001895000018950000AC
:1000A000189500001895000018950000189500009C
:1000B000189500001895000018950000189500008C
:1000C000189500001895000018950000189500007C
:1000D000189500001895000018950000189500006C
:1000E000189500001895000018950000189500005C
:1000F000189500001895000018950000189500004C
:10010000189500001895000018950000189500003B
:10011000189500001895000018950000189500002B
:10012000189500001895000018950000189500001B
:10013000189500001895000018950000189500000B
:1001400018950000189500001895000018950000FB
:1001500018950000189500001895000018950000EB
:1001600018950000189500001895000018950000DB
:100170001895000018950000FFFFFFFFFFFFFFFF2D
:10018000FFFFFFFFFFFFFFFFFFFFFFFFFFFFFFFF7F
:10019000FFFFFFFFFFFFFFFFFFFFFFFFFFFFFFFF6F
:1001A000FFFFFFFFFFFFFFFFFFFFFFFFFFFFFFFF5F
:1001B000FFFFFFFFFFFFFFFFFFFFFFFFFFFFFFFF4F
:1001C000FFFFFFFFFFFFFFFFFFFFFFFFFFFFFFFF3F
:1001D000FFFFFFFFFFFFFFFFFFFFFFFFFFFFFFFF2F
:1001E000FFFFFFFFFFFFFFFFFFFFFFFFFFFFFFFF1F
:1001F000FFFFFFFFFFFFFFFFFFFFFFFFFFFFFFFF0F
:100200008FEF8DBFC0E6E8E34E2E8FE28EBFDFE2B8
:10021000FEE25F2E009078008FE38093780078ED07
:1002200074BF80938000EEEFFFE0A0E0B0E288278B
:100230008D933197E9F70E94F327662470E070935D
:10024000520077E07093500070E07093560071E0B8
:10025000709360008091510081FFFCCF78ED74BFF6
:1002600071E07093400078ED74BF70E070934100CE
:100270007091CC0178607093CC0101E010E020E037
:1002800030E0AAE2B0E20D931D932D933C9381E000
:1002900080932E2081E08093DA200091DA200A30CA
:1002A00018F011F00C94660182E3AAEDB0E2AD9073
:1002B000BB24A6EAB1E2AA0DBB1D8C93AAEDB0E265
:1002C0008C918F5F8C9310F40C944D01ABECB1E2E8
:1002D000E2E7FCE50E94CE2AA0EDB1E2E8E7FCE50A
:1002E0000E94CE2AA4EDB1E2E8E7FCE50E94CE2A06
:1002F000A8EDB1E2E8E7FCE50E94CE2A70E0709339
:1003000000067CE0709320067CEB709340067FE053
:10031000709360067FE07093800671E07093E00751
:1003200078E17093300678E17093740672E0709310
:10033000310672E07093750672E07093760672E093
:100340007093770681E0809333200091332008304A
:1003500018F011F00C94D801E3E3F0E2A190BB2473
:10036000EFEFFFEFEA0DFB1DA3E3B0E2AD90BB247E
:10037000A3ECB0E2AA0DBB1D0E94CD29A3E3B0E21D
:10038000AD90BB24A3ECB0E2AA0DBB1D8C91A3E3FE
:10039000B0E2AD90BB24A3E4B0E2AA0DBB1D8C93E8
:1003A000A3E3B0E28C918F5F8C9310F40C94A501C1
:1003B00081E08093332000913320033018F011F056
:1003C0000C94FC01E3E3F0E2A190BB24E7E0F0E051
:1003D000EA0DFB1DA3E3B0E2AD90BB24A4EDB0E2B7
:1003E000AA0DBB1D0E94CD29A3E3B0E28C918F5FC3
:1003F0008C9310F40C94DB01EBE0F0E0A8EDB0E29C
:100400000E94CD29ECE0F0E0A7EFB0E20E94CD29F8
:100410008EE18093F82081E08093FC20EDE0F0E015
:10042000ADEFB0E20E94CD29EEE0F0E0AEEFB0E239
:100430000E94CD298091FE208093FF20EFE0F0E024
:10044000A0E0B1E20E94CD29E0E1F0E0A1E0B1E25C
:100450000E94CD2981E08093332000913320083120
:1004600018F011F00C946002E3E3F0E2A190BB24D9
:10047000E0E1F0E0EA0DFB1DA3E3B0E2AD90BB24A8
:10048000A1E0B1E2AA0DBB1D0E94CD29E3E3F0E299
:10049000A190BB24E8E2F0E0EA0DFB1DA3E3B0E28B
:1004A000AD90BB24A9E1B1E2AA0DBB1D0E94CD29EC
:1004B000A3E3B0E28C918F5F8C9310F40C942D0227
:1004C00081E080933321E1E4F0E0A4E3B1E20E9413
:1004D000CD29E2E4F0E0A5E3B1E20E94CD298091CC
:1004E000352180933621E3E4F0E0A7E3B1E20E94F6
:1004F000CD29E4E4F0E0A8E3B1E20E94CD2981E057
:100500008093332000913320083118F011F00C94BF
:10051000B502E3E3F0E2A190BB24E4E4F0E0EA0DED
:10052000FB1DA3E3B0E2AD90BB24A8E3B1E2AA0DAA
:10053000BB1D0E94CD29E3E3F0E2A190BB24ECE5D2
:10054000F0E0EA0DFB1DA3E3B0E2AD90BB24A0E513
:10055000B1E2AA0DBB1D0E94CD29A3E3B0E28C91AC
:100560008F5F8C9310F40C94820281E080936A2157
:10057000E5E7F0E0ABE6B1E20E94CD29E6E7F0E086
:10058000ACE6B1E20E94CD2980916C2180936D216F
:10059000E7E7F0E0AEE6B1E20E94CD29E8E7F0E05F
:1005A000AFE6B1E20E94CD2981E080933320009133
:1005B0003320083118F011F00C940A03E3E3F0E261
:1005C000A190BB24E8E7F0E0EA0DFB1DA3E3B0E255
:1005D000AD90BB24AFE6B1E2AA0DBB1D0E94CD29B0
:1005E000E3E3F0E2A190BB24E0E9F0E0EA0DFB1DBB
:1005F000A3E3B0E2AD90BB24A7E8B1E2AA0DBB1D16
:100600000E94CD29A3E3B0E28C918F5F8C9310F40C
:100610000C94D702E9EAF0E0ABEFB0E20E94CD29FA
:10062000EAEAF0E0A2EDB0E20E94CD29EBEAF0E0C8
:10063000AAEDB0E20E94CD29AAEDB0E28C919927F3
:100640008093380A9093390A81E080933320009197
:100650003320083118F011F00C945103E3E3F0E279
:100660000191112745E050E00E94A12AE7EAF0E05D
:10067000E00FF11FA3E3B0E20D91112745E050E038
:100680000E94A12AA7E4B0E2A00FB11F94E00E944B
:10069000D829A3E3B0E28C918F5F8C9310F40C9473
:1006A0002703E4E2F1E0A4EAB1E20E94CF29E6E206
:1006B000F1E0ADECB0E20E94CD2981E080933320DF
:1006C00000913320033018F011F00C948103E3E320
:1006D000F0E2A190BB24E6E2F1E0EA0DFB1DA3E30A
:1006E000B0E2AD90BB24AEECB0E2AA0DBB1D0E94FF
:1006F000CD29A3E3B0E28C918F5F8C9310F40C941E
:100700006003EAE2F1E0A1EAB1E20E94CD29EBE266
:10071000F1E0A3ECB1E20E94CF29EDE2F1E0A8EF15
:10072000B0E20E94CD298091F8208093F9200E94A8
:10073000B4258CE00E947B280E94D82770E8709333
:10074000410688EA8A938EE68A9383E08A9381E061
:100750008A930E944C298091B3088F7C806180939A
:10076000B30875EF7093010A8FEF90E08093260A2B
:100770009093270A72E07093000A75EF7093010955
:100780008FEF90E0809326099093270972E0709391
:1007900000090E94801C79E5709380017DE67093CA
:1007A00081017EE6709382017FE67093830178E297
:1007B0007093030870EF709301088FEF9FEF8093A1
:1007C00026089093270876E0709300088091070828
:1007D0008C7F81608093070880910708837F846005
:1007E00080930708809107088F7C806180930708B9
:1007F000809107088F73806480930708E0E20E946D
:100800000B2AAAEDB0E28C93E1E20E940B2AABED39
:10081000B0E28C93AAEDB0E28C9180930C02ABED28
:10082000B0E28C9180930D02A0E0B2E081E08D9364
:1008300080E08D9383E08D9380E08D9383E08D93B2
:1008400081E08093200281E0E0EEF7E00E94212A1F
:1008500081E0E0EEF7E00E94062DAEEDB1E20D93EF
:100860001C93AEEDB1E20D911C91003050E01507E4
:1008700018F011F00C943E040C944A0481E0E0EE70
:10088000F7E00E94912CA0EEB1E2E2E2F4E298E0FF
:100890000E94D32DAEEDB1E20D911C91013050E0DC
:1008A000150718F011F00C9457040C949004009163
:1008B000DE2141E0041BABEDB0E20C9381E08093BC
:1008C000DA204091DB200091DA20041718F011F0B3
:1008D0000C94900408E010E0AAEDB0E24D91552789
:1008E0000E94A12AACEDB0E20D931C9381E0E0EEF2
:1008F000F7E00E94962CACEDB0E2AD90BD90A0EE7A
:10090000B1E2AA0DBB1DE2E2F4E298E00E94D32D11
:10091000AAEDB0E28C918F5F8C9310F40C9461047B
:10092000AEEDB1E20D911C91083050E0150710F0CA
:100930000C94BE0488E080933320AEEDB1E24D917B
:100940005C91A3E3B0E20D9111270417150718F08D
:1009500011F00C94AD040C94BE048CEDA3E3B0E252
:10096000AD90BB24ABE3B0E2AA0DBB1D8C9380918C
:1009700033208150809333200C949D0481E0E0EE7D
:10098000F7E00E94212A5CEC81E0E0EEF7E00E94B3
:10099000462A54E481E0E0EEF7E00E94462A8FEF19
:1009A0009FEF809366089093670877E07093400804
:1009B00071E07093A20078947091A3217068709395
:1009C000A32171E070932206A3EAB1E29C9196FF05
:1009D00006C00090280600FE14C09F7B9C930090E8
:1009E000280600FC0EC089E19F9399270E943529B3
:1009F0009F910090280600FC04C090649C930E9484
:100A00004E1F70E170936206A3EAB1E29C9195FFDC
:100A100006C00090680604FE14C09F7D9C93009061
:100A2000680604FC0EC089E19F9399270E9435292E
:100A30009F910090680604FC04C090629C930E9401
:100A40008524A0E6B8E00D911C9105335CE0150704
:100A500018F011F00C942E050C94A90580E090E09C
:100A60008093600890936108A4EFB0E28C918F5F4F
:100A70008C937091F52071607093F520A4EFB0E233
:100A80000C9100FB16F40C944A057091F5207260ED
:100A90007093F5200091F420053081E009F080E0AA
:100AA0008F930091F4200A3081E009F080E09F915B
:100AB000892B882311F40C9472050E94E21C0E9479
:100AC0009821AEEDB1E20D911C91003050E0150778
:100AD00018F011F00C946E050C9470050E94BD1B6B
:100AE0000E94EF210091F4200A3011F00C9481054E
:100AF00080E08093F4200E94A1220E9464240E943E
:100B0000C924A6EFB0E28C918F5F8C930091F62000
:100B1000023311F00C948E050E9468220091F62099
:100B2000043611F00C94A905A3EAB1E28C9187FB7D
:100B300016F40C94A50571E07093E5078AE090E047
:100B40000E94352971E07093E6070E9468220E9496
:100B50004E1F0091CD20013011F00C947606A5EFC8
:100B6000B0E20C9100FB16F00C9474067091F52025
:100B70007E7F7093F5200091CE20003011F00C9410
:100B8000DF0580913C098093DA20AAEDB0E28C91D8
:100B90008F5F8C93AAEDB0E28C91992780933C09EA
:100BA00090933D090091DA200F3F11F00C94DD0580
:100BB000AEECB0E28C918F5F8C930C947406013094
:100BC00011F00C94010680913A098093DA20AAED85
:100BD000B0E28C918F5F8C93AAEDB0E28C91992753
:100BE00080933A0990933B090091DA200F3F11F06E
:100BF0000C94FF05AEECB0E28C918F5F8C930C945B
:100C00007406023011F00C943406809138098093F8
:100C1000DA20AAEDB0E28C918F5F8C93AAEDB0E25E
:100C20008C919927809338099093390980913C09D8
:100C30008093DA208091DA2081508093DA20AAED27
:100C4000B0E28C91992780933C0990933D090091E3
:100C5000DA20003011F00C943206AEECB0E28C9148
:100C60008F5F8C930C947406033011F00C9456062D
:100C700080913A098093DA208091DA208150809324
:100C8000DA20AAEDB0E28C91992780933A099093EB
:100C90003B090091DA20003011F00C945406AEECC0
:100CA000B0E28C918F5F8C930C947406043011F039
:100CB0000C947406809138098093DA208091DA20B0
:100CC00081508093DA20AAEDB0E28C91992780932D
:100CD0003809909339090091DA20003011F00C9412
:100CE000740680E08093CE200C949208023011F0BC
:100CF0000C948507A5EFB0E20C9100FB16F00C9464
:100D000083077091F5207E7F7093F5200091CE20AF
:100D1000003011F00C94BB06809138098093DA20E2
:100D2000AAEDB0E28C918F5F8C93AAEDB0E28C912A
:100D30009927809338099093390980913A098093D3
:100D4000DA208091DA2081508093DA20AAEDB0E297
:100D50008C91992780933A0990933B090091DA206E
:100D6000003011F00C94B906AEECB0E28C918F5FBC
:100D70008C930C948307013011F00C94DD06809164
:100D80003A098093DA20AAEDB0E28C918F5F8C93C0
:100D9000AAEDB0E28C91992780933A0990933B0990
:100DA0000091DA200F3F11F00C94DB06AEECB0E2BC
:100DB0008C918F5F8C930C948307023011F00C940C
:100DC000FF0680913C098093DA20AAEDB0E28C9175
:100DD0008F5F8C93AAEDB0E28C91992780933C09A8
:100DE00090933D090091DA200F3F11F00C94FD061D
:100DF000AEECB0E28C918F5F8C930C948307033040
:100E000011F00C94210780913A098093DA208091A7
:100E1000DA2081508093DA20AAEDB0E28C919927F4
:100E200080933A0990933B090091DA20003011F049
:100E30000C941F07AEECB0E28C918F5F8C930C94F6
:100E40008307043011F00C94430780913809809394
:100E5000DA208091DA2081508093DA20AAEDB0E286
:100E60008C91992780933809909339090091DA2061
:100E7000003011F00C944107AEECB0E28C918F5F22
:100E80008C930C948307053011F00C9465078091C6
:100E90003A098093DA20AAEDB0E28C918F5F8C93AF
:100EA000AAEDB0E28C91992780933A0990933B097F
:100EB0000091DA200F3F11F00C946307AEECB0E222
:100EC0008C918F5F8C930C948307063011F00C94F7
:100ED000830780913C098093DA208091DA20815049
:100EE0008093DA20AAEDB0E28C91992780933C0997
:100EF00090933D090091DA20003011F00C948307A3
:100F000080E08093CE200C949208033011F00C9472
:100F10009208A5EFB0E20C9101FB16F00C94920838
:100F20007091F5207D7F7093F5200091CE200030E8
:100F300011F00C94CA07809138098093DA20AAED49
:100F4000B0E28C918F5F8C93AAEDB0E28C919927DF
:100F5000809338099093390980913A098093DA2077
:100F60008091DA2081508093DA20AAEDB0E28C9152
:100F7000992780933A0990933B090091DA20003039
:100F800011F00C94C807AEECB0E28C918F5F8C939B
:100F90000C949208013011F00C94EC0780913A09FE
:100FA0008093DA20AAEDB0E28C918F5F8C93AAED4A
:100FB000B0E28C91992780933A0990933B09009174
:100FC000DA200F3F11F00C94EA07AEECB0E28C91FE
:100FD0008F5F8C930C949208023011F00C940E08E1
:100FE00080913C098093DA20AAEDB0E28C918F5F6A
:100FF0008C93AAEDB0E28C91992780933C09909351
:101000003D090091DA200F3F11F00C940C08AEEC72
:10101000B0E28C918F5F8C930C949208033011F0A6
:101020000C94300880913A098093DA208091DA207C
:1010300081508093DA20AAEDB0E28C9199278093B9
:101040003A0990933B090091DA20003011F00C949A
:101050002E08AEECB0E28C918F5F8C930C949208CA
:10106000043011F00C945208809138098093DA20F2
:101070008091DA2081508093DA20AAEDB0E28C9141
:10108000992780933809909339090091DA2000302C
:1010900011F00C945008AEECB0E28C918F5F8C9301
:1010A0000C949208053011F00C94740880913A0960
:1010B0008093DA20AAEDB0E28C918F5F8C93AAED39
:1010C000B0E28C91992780933A0990933B09009163
:1010D000DA200F3F11F00C947208AEECB0E28C9164
:1010E0008F5F8C930C949208063011F00C94920848
:1010F00080913C098093DA208091DA20815080939E
:10110000DA20AAEDB0E28C91992780933C09909364
:101110003D090091DA20003011F00C94920880E033
:101120008093CE200091FA20003011F00C94B20888
:1011300080E090E080933E0990933F090091F72072
:10114000003018F011F00C94A7080C94B008AAEF26
:10115000B0E28C918F5F8C938091F8208093F9207E
:101160000C941B09013011F00C94BE088FEF90E035
:1011700080933E0990933F090C941B09023011F0B3
:101180000C941B090091F720083718F011F00C940B
:10119000CB080C94D3088FEF90E080933E09909396
:1011A0003F090C941B090091F720013081E008F4FD
:1011B00080E08F930091F720083781E010F009F06C
:1011C00080E09F918923882311F40C941409E7EFA0
:1011D000F0E2D080EE24FF2400270E94582BAEEDD1
:1011E000B0E20E948A2BE6E6FCE50E94352CEEED8B
:1011F000F0E20E94342B0E94002CAEEDB0E2DD92B2
:10120000ED92FD920D93EEEDF0E20E94002BAAED1F
:10121000B0E2DC92AAEDB0E28C91992780933E096E
:1012200090933F090C941B09003011F00C941B099A
:1012300080E08093FA207091A2217D7F7093A2219B
:10124000ABEFB0E20C9104FB16F00C947D0A80E049
:101250008093322181E08093332000913320083144
:1012600018F011F00C94DC09A3E3B0E2AD90BB24BC
:10127000A1E0B1E2AA0DBB1D4C91A3E3B0E2AD9099
:10128000BB24A3E3B0E2AA0DBB1D0C91041781E0BF
:1012900008F480E08F93A3E3B0E2AD90BB24A9E112
:1012A000B1E2AA0DBB1D4C91A3E3B0E2AD90BB240B
:1012B000A3E3B0E2AA0DBB1D0C91041781E010F06E
:1012C00009F080E09F918923882311F40C94B309DD
:1012D000A3E3B0E2AD90BB24A9E1B1E2AA0DBB1D2E
:1012E0000C91A3E3B0E2AD90BB24A1E0B1E2AA0D62
:1012F000BB1D4C91041BAAEDB0E20C9304E6409197
:10130000DA200E94E02DAAEDB0E20C93A3E3B0E254
:10131000AD90BB24A3E3B0E2AA0DBB1D0C91A3E3E7
:10132000B0E2AD90BB24A1E0B1E2AA0DBB1D4C918F
:10133000041BABEDB0E20C930091DB204091DA206E
:10134000049FABEDB0E20C92409132210091DB2082
:10135000041718F011F00C94AF090C94B3098091A4
:10136000DB2080933221A3E3B0E2AD90BB24A9E15E
:10137000B1E2AA0DBB1D4C91A3E3B0E2AD90BB243A
:10138000A3E3B0E2AA0DBB1D0C91041718F011F0F5
:101390000C94CC090C94D4097091A22172607093C2
:1013A000A22184E680933221A3E3B0E28C918F5F87
:1013B0008C9310F40C942D090091FC20003011F056
:1013C0000C94100A80E090E080933A0A90933B0AD4
:1013D000ABEFB0E20C9105FB16F00C94050A4091BE
:1013E000002100913221041718F011F00C94FA0931
:1013F0000C94030AACEFB0E28C918F5F8C938091D8
:10140000FE208093FF200C940E0AACEFB0E28C918A
:101410008F5F8C938091FE208093FF200C947B0A39
:10142000013011F00C941C0A8FEF90E080933A0A7F
:1014300090933B0A0C947B0A023011F00C947B0AC7
:10144000ABEFB0E20C9105FB81E00EF080E08F93F2
:1014500000913221003081E009F080E09F918923E2
:10146000882311F40C94370A80E08093FC200FEF5E
:101470004091FD20041BABEDB0E20C93EAE6FCE5E5
:101480000E94352CEBEDF0E2D080EE24FF24002703
:101490000E94582B0E94AA2BAEEDB0E2DD92ED9295
:1014A000FD920D93E2E3F1E2D080EE24FF240027C9
:1014B0000E94582B0E948F2BEEEDF0E20E94342BFD
:1014C0000E94002CDD2CEE2CFF2C002F0E94012B03
:1014D000ABEDB0E2DC920091DB204091FD20040FE7
:1014E000ABEDB0E20C93ABEDB0E28C919927809319
:1014F0003A0A90933B0A0C94C00A0091FC200030F9
:1015000011F00C949D0A80E090E080933A0A909349
:101510003B0A00910121003018F011F00C94920A5E
:101520000C949B0AACEFB0E28C918F5F8C9380910E
:10153000FE208093FF200C94C00A013011F00C941F
:10154000A90A8FEF90E080933A0A90933B0A0C949B
:10155000C00A023011F00C94C00A00910121003041
:1015600011F00C94B80A80E08093FC200C94C00A1F
:10157000A1E0B1E28C91992780933A0A90933B0ABB
:10158000ABEFB0E20C9102FB16F00C941D0C80E066
:101590008093692181E080933320009133200831CA
:1015A00018F011F00C947C0BA3E3B0E2AD90BB24D7
:1015B000A8E3B1E2AA0DBB1D4C91A3E3B0E2AD904C
:1015C000BB24A3E3B0E2AA0DBB1D0C91041781E07C
:1015D00008F480E08F93A3E3B0E2AD90BB24A0E5D4
:1015E000B1E2AA0DBB1D4C91A3E3B0E2AD90BB24C8
:1015F000A3E3B0E2AA0DBB1D0C91041781E010F02B
:1016000009F080E09F918923882311F40C94530BF7
:10161000A3E3B0E2AD90BB24A0E5B1E2AA0DBB1DEF
:101620000C91A3E3B0E2AD90BB24A8E3B1E2AA0D14
:10163000BB1D4C91041BAAEDB0E20C9304E6409153
:10164000DA200E94E02DAAEDB0E20C93A3E3B0E211
:10165000AD90BB24A3E3B0E2AA0DBB1D0C91A3E3A4
:10166000B0E2AD90BB24A8E3B1E2AA0DBB1D4C9142
:10167000041BABEDB0E20C930091DB204091DA202B
:10168000049FABEDB0E20C92409169210091DB2008
:10169000041718F011F00C944F0B0C94530B80911D
:1016A000DB2080936921A3E3B0E2AD90BB24A0E5E9
:1016B000B1E2AA0DBB1D4C91A3E3B0E2AD90BB24F7
:1016C000A3E3B0E2AA0DBB1D0C91041718F011F0B2
:1016D0000C946C0B0C94740B7091A221726070933B
:1016E000A22184E680936921A3E3B0E28C918F5F0D
:1016F0008C9310F40C94CD0A00913321003011F03A
:101700000C94B00B80E090E080933C0A90933D0AEB
:10171000ABEFB0E20C9103FB16F00C94A50B4091DB
:10172000372100916921041718F011F00C949A0BDD
:101730000C94A30BA3E3B1E28C918F5F8C93809107
:101740003521809336210C94AE0BA3E3B1E28C914A
:101750008F5F8C9380913521809336210C941B0CE4
:10176000013011F00C94BC0B8FEF90E080933C0A99
:1017700090933D0A0C941B0C023011F00C941B0C3E
:10178000ABEFB0E20C9103FB81E00EF080E08F93B1
:1017900000916921003081E009F080E09F91892368
:1017A000882311F40C94D70B80E0809333210FEF42
:1017B00040913421041BABEDB0E20C93EAE6FCE56A
:1017C0000E94352CEBEDF0E2D080EE24FF240027C0
:1017D0000E94582B0E94AA2BAEEDB0E2DD92ED9252
:1017E000FD920D93E9E6F1E2D080EE24FF2400277C
:1017F0000E94582B0E948F2BEEEDF0E20E94342BBA
:101800000E94002CDD2CEE2CFF2C002F0E94012BBF
:10181000ABEDB0E2DC920091DB2040913421040F6B
:10182000ABEDB0E20C93ABEDB0E28C9199278093D5
:101830003C0A90933D0A0C94600C009133210030D7
:1018400011F00C943D0C80E090E080933C0A909362
:101850003D0A00913821003018F011F00C94320C40
:101860000C943B0CA3E3B1E28C918F5F8C9380913D
:101870003521809336210C94600C013011F00C94CA
:10188000490C8FEF90E080933C0A90933D0A0C94B2
:10189000600C023011F00C94600C00913821003083
:1018A00011F00C94580C80E0809333210C94600C60
:1018B000A8E3B1E28C91992780933C0A90933D0A6A
:1018C000ABEFB0E20C9100FB16F00C94BD0D80E084
:1018D0008093A02181E08093332000913320083150
:1018E00018F011F00C941C0DA3E3B0E2AD90BB24F2
:1018F000AFE6B1E2AA0DBB1D4C91A3E3B0E2AD90FF
:10190000BB24A3E3B0E2AA0DBB1D0C91041781E038
:1019100008F480E08F93A3E3B0E2AD90BB24A7E886
:10192000B1E2AA0DBB1D4C91A3E3B0E2AD90BB2484
:10193000A3E3B0E2AA0DBB1D0C91041781E010F0E7
:1019400009F080E09F918923882311F40C94F30C13
:10195000A3E3B0E2AD90BB24A7E8B1E2AA0DBB1DA2
:101960000C91A3E3B0E2AD90BB24AFE6B1E2AA0DC7
:10197000BB1D4C91041BAAEDB0E20C9304E6409110
:10198000DA200E94E02DAAEDB0E20C93A3E3B0E2CE
:10199000AD90BB24A3E3B0E2AA0DBB1D0C91A3E361
:1019A000B0E2AD90BB24AFE6B1E2AA0DBB1D4C91F5
:1019B000041BABEDB0E20C930091DB204091DA20E8
:1019C000049FABEDB0E20C924091A0210091DB208E
:1019D000041718F011F00C94EF0C0C94F30C809198
:1019E000DB208093A021A3E3B0E2AD90BB24A7E865
:1019F000B1E2AA0DBB1D4C91A3E3B0E2AD90BB24B4
:101A0000A3E3B0E2AA0DBB1D0C91041718F011F06E
:101A10000C940C0D0C94140D7091A22172607093B3
:101A2000A22184E68093A021A3E3B0E28C918F5F92
:101A30008C9310F40C946D0C00916A21003011F01D
:101A40000C94500D80E090E080933E0A90933F0A02
:101A5000ABEFB0E20C9101FB16F00C94450D4091F8
:101A60006E210091A021041718F011F00C943A0D8A
:101A70000C94430DAAE6B1E28C918F5F8C93809118
:101A80006C2180936D210C944E0DAAE6B1E28C91ED
:101A90008F5F8C9380916C2180936D210C94BB0D92
:101AA000013011F00C945C0D8FEF90E080933E0AB2
:101AB00090933F0A0C94BB0D023011F00C94BB0DB7
:101AC000ABEFB0E20C9101FB81E00EF080E08F9370
:101AD0000091A021003081E009F080E09F918923EE
:101AE000882311F40C94770D80E080936A210FEF26
:101AF00040916B21041BABEDB0E20C93EAE6FCE5F0
:101B00000E94352CEBEDF0E2D080EE24FF2400277C
:101B10000E94582B0E94AA2BAEEDB0E2DD92ED920E
:101B2000FD920D93E0EAF1E2D080EE24FF2400273D
:101B30000E94582B0E948F2BEEEDF0E20E94342B76
:101B40000E94002CDD2CEE2CFF2C002F0E94012B7C
:101B5000ABEDB0E2DC920091DB2040916B21040FF1
:101B6000ABEDB0E20C93ABEDB0E28C919927809392
:101B70003E0A90933F0A0C94000E00916A210030B7
:101B800011F00C94DD0D80E090E080933E0A90937C
:101B90003F0A00916F21003018F011F00C94D20D23
:101BA0000C94DB0DAAE6B1E28C918F5F8C9380914F
:101BB0006C2180936D210C94000E013011F00C9477
:101BC000E90D8FEF90E080933E0A90933F0A0C94CA
:101BD000000E023011F00C94000E00916F210030C5
:101BE00011F00C94F80D80E080936A210C94000EA3
:101BF000AFE6B1E28C91992780933E0A90933F0A19
:101C0000A1E2B2E20E94F02DEA2FFB2F33970FEFF3
:101C1000AEEEB0E20E94D82DAEEEB0E2ECE7FCE50D
:101C20000E94F62D11F00C94EB19E1E2F2E293E23E
:101C300004E033E3AFE1B3E20E940C2EAAEDB0E280
:101C40002C9380E080932022A1E2B2E288278C933B
:101C50008091DA2081508093DA20A4E2B3E20E94DE
:101C6000822D402F512F622F732FAAEDB0E20C91DD
:101C70001127222733270E941E2D11F00C94EB19F7
:101C8000AFE1B3E2E0E8FCE50E94F62D11F00C9420
:101C90004E0E80E0809328200C94EB19E6E8FCE5DA
:101CA0000E94F62D11F00C943112A9E2B3E20E94C9
:101CB000822DA8E2B0E20C93ECE8FCE581E08A9387
:101CC0000E946029A0E2BEE2E7EFF0E20E94402D10
:101CD00081E08A930E945729E6E9FCE581E08A9336
:101CE0000E946029A0E2BEE2E4EAF1E20E94312D06
:101CF00081E08A930E945729E6E9FCE581E08A9316
:101D00000E946029A1EAB1E20C9100FB16F00C944C
:101D10009B0EA0E2BEE2E3ECF1E20E94312D81E0F5
:101D20008A930E945729E6E9FCE581E08A930E94A4
:101D300060290C94A10EE8E9FCE581E08A930E94F9
:101D4000602981E08093332000913320083118F01E
:101D500011F00C94C90EA0E2BEE2E3E3F0E2A19020
:101D6000BB24E1E0F1E2EA0DFB1D0E94402D81E081
:101D70008A930E945729E6E9FCE581E08A930E9454
:101D80006029A3E3B0E28C918F5F8C9310F40C94E4
:101D9000A40E81E08093332000913320083118F0A5
:101DA00011F00C94F10EA0E2BEE2E3E3F0E2A190A8
:101DB000BB24E9E1F1E2EA0DFB1D0E94402D81E028
:101DC0008A930E945729E6E9FCE581E08A930E9404
:101DD0006029A3E3B0E28C918F5F8C9310F40C9494
:101DE000CC0E81E08093332000913320083118F02D
:101DF00011F00C94190FA0E2BEE2E3E3F0E2A1902F
:101E0000BB24E8E3F1E2EA0DFB1D0E94402D81E0D6
:101E10008A930E945729E6E9FCE581E08A930E94B3
:101E20006029A3E3B0E28C918F5F8C9310F40C9443
:101E3000F40E81E08093332000913320083118F0B4
:101E400011F00C94410FA0E2BEE2E3E3F0E2A190B6
:101E5000BB24E0E5F1E2EA0DFB1D0E94402D81E08C
:101E60008A930E945729E6E9FCE581E08A930E9463
:101E70006029A3E3B0E28C918F5F8C9310F40C94F3
:101E80001C0F81E08093332000913320083118F03B
:101E900011F00C94690FA0E2BEE2E3E3F0E2A1903E
:101EA000BB24EFE6F1E2EA0DFB1D0E94402D81E02C
:101EB0008A930E945729E6E9FCE581E08A930E9413
:101EC0006029A3E3B0E28C918F5F8C9310F40C94A3
:101ED000440F81E08093332000913320083118F0C3
:101EE00011F00C94910FA0E2BEE2E3E3F0E2A190C6
:101EF000BB24E7E8F1E2EA0DFB1D0E94402D81E0E2
:101F00008A930E945729E6E9FCE581E08A930E94C2
:101F10006029A3E3B0E28C918F5F8C9310F40C9452
:101F20006C0FA0E2BEE2E1E0F1E20E94402D81E010
:101F30008A930E945729E6E9FCE581E08A930E9492
:101F40006029A0E2BEE2EEEFF0E20E94402D81E0C7
:101F50008A930E945729E6E9FCE581E08A930E9472
:101F60006029A0E2BEE2EDEFF0E20E94402D81E0A8
:101F70008A930E945729E6E9FCE581E08A930E9452
:101F80006029ABEFB0E28C9184FBA0E2BEE20E943C
:101F90005D2C8D9388278C9381E08A930E9457292A
:101FA000E6E9FCE581E08A930E946029ABEFB0E2AC
:101FB0008C9185FBA0E2BEE20E945D2C8D93882768
:101FC0008C9381E08A930E945729E6E9FCE581E041
:101FD0008A930E946029A0E2BEE2E8E3F1E20E9457
:101FE000402D81E08A930E945729E6E9FCE581E0D3
:101FF0008A930E946029A0E2BEE2E5E3F1E20E943A
:10200000402D81E08A930E945729E6E9FCE581E0B2
:102010008A930E946029A0E2BEE2E4E3F1E20E941A
:10202000402D81E08A930E945729E6E9FCE581E092
:102030008A930E946029ABEFB0E28C9182FBA0E210
:10204000BEE20E945D2C8D9388278C9381E08A9359
:102050000E945729E6E9FCE581E08A930E94602905
:10206000ABEFB0E28C9183FBA0E2BEE20E945D2C5C
:102070008D9388278C9381E08A930E945729E6E903
:10208000FCE581E08A930E946029A0E2BEE2EFE6CF
:10209000F1E20E94402D81E08A930E945729E6E9EF
:1020A000FCE581E08A930E946029A0E2BEE2ECE6B2
:1020B000F1E20E94402D81E08A930E945729E6E9CF
:1020C000FCE581E08A930E946029A0E2BEE2EBE693
:1020D000F1E20E94402D81E08A930E945729E6E9AF
:1020E000FCE581E08A930E946029ABEFB0E28C911D
:1020F00080FBA0E2BEE20E945D2C8D9388278C932A
:1021000081E08A930E945729E6E9FCE581E08A9301
:102110000E946029ABEFB0E28C9181FBA0E2BEE2AD
:102120000E945D2C8D9388278C9381E08A930E9476
:102130005729E6E9FCE581E08A930E946029009135
:10214000A1214CE10423AAEDB0E20C930091DA2026
:10215000003011F00C94B410E8E9FCE581E08A93BA
:102160000E9460290C94BA10ECE9FCE581E08A93A6
:102170000E94602981E08093332000913320083150
:1021800018F011F00C94E210A3E3B0E20D911127C6
:1021900045E050E00E94A12AA7E4B0E2A00FB11FE1
:1021A00081E08A930E945929E6E9FCE581E08A935F
:1021B0000E946029A3E3B0E28C918F5F8C9310F4AE
:1021C0000C94BD10A1EAB1E28C9181FBA0E2BEE2C9
:1021D0000E945D2C8D9388278C9381E08A930E94C6
:1021E0005729E6E9FCE581E08A930E94602981E0B5
:1021F0008093332000913320083018F011F00C94B4
:102200001F11A0E2BEE2E3E3F0E2A190BB24E3EC05
:10221000F0E2EA0DFB1D0E94402D81E08A930E94AE
:102220005729E6E9FCE581E08A930E946029A3E34F
:10223000B0E28C918F5F8C9310F40C94FA1081E0D3
:102240008093332000913320033018F011F00C9468
:102250004711A0E2BEE2E3E3F0E2A190BB24E4ED8B
:10226000F0E2EA0DFB1D0E94402D81E08A930E945E
:102270005729E6E9FCE581E08A930E946029A3E3FF
:10228000B0E28C918F5F8C9310F40C9422118091AA
:10229000380A8093DA20A0E2BEE2EAEDF0E20E9482
:1022A000402D81E08A930E945729E6E9FCE581E010
:1022B0008A930E946029A0E2BEE2E2EDF0E20E9471
:1022C000402D81E08A930E945729E6E9FCE581E0F0
:1022D0008A930E946029A0E2BEE2E8EDF0E20E944B
:1022E000402D81E08A930E945729E6E9FCE581E0D0
:1022F0008A930E946029A0E2BEE2EDECF0E20E9427
:10230000402D81E08A930E945729E6E9FCE581E0AF
:102310008A930E94602981E08093332000913320CA
:10232000033018F011F00C94B311A0E2BEE2E3E325
:10233000F0E2A190BB24EEECF0E2EA0DFB1D0E945E
:10234000402D81E08A930E945729E6E9FCE581E06F
:102350008A930E946029A3E3B0E28C918F5F8C93F3
:1023600010F40C948E1181E080933320009133207F
:102370000F3318F011F00C94DB11A0E2BEE2E3E39E
:10238000F0E2A190BB24EFEDF1E2EA0DFB1D0E940B
:10239000B12D81E08A930E945729E6E9FCE581E0AE
:1023A0008A930E946029A3E3B0E28C918F5F8C93A3
:1023B00010F40C94B611A0E2BEE2EFE1F2E20E944A
:1023C000B12D81E08A930E945729E0EAFCE581E083
:1023D0008A930E946029A0E2BEE2E0E0F1E20E945E
:1023E000402D81E08A930E945729E6E9FCE581E0CF
:1023F0008A930E946029A0E2BEE2E7E3F1E20E9434
:10240000402D81E08A930E945729E6E9FCE581E0AE
:102410008A930E946029A0E2BEE2EEE6F1E20E9409
:10242000402D81E08A930E945729E6E9FCE581E08E
:102430008A930E946029A0E2BEE2E8EFF0E20E94E7
:10244000402D81E08A930E945729E6E9FCE581E06E
:102450008A930E94602981E08A930E9468290C94E3
:10246000EB19E8EAFCE50E94F62D11F00C944C12F1
:10247000A9E2B3E2EEEAFCE50E94F62D11F00C941D
:102480004A1278ED74BF71E070937900E1E0F0E0FA
:102490000E94EA270C94EB19E4EBFCE50E94F62D70
:1024A00011F00C94A2127091CC207F7E7093CC20FE
:1024B00083E080933320009133200A3018F011F02C
:1024C0000C948812009133204EE0040FABEDB0E283
:1024D0000C93A3E3B0E20D91112745E050E00E9478
:1024E000A12AAAE1B3E2A00FB11F0E94822DABED99
:1024F000B0E2AD90BB24A3E3B0E2AA0DBB1D0C93E8
:10250000A3E3B0E28C918F5F8C9310F40C945B1278
:10251000E0E6F3E2ABECB1E20E94CD2DE5E6F3E2BA
:10252000A0EDB1E20E94CD2DEAE6F3E2A4EDB1E226
:102530000E94CD2DEFE6F3E2A8EDB1E20E94CD2D91
:102540000C94EB19EAEBFCE50E94F62D11F00C94CB
:10255000E112A9E2B3E20E94822DA7EFB0E20C9350
:10256000AEE2B3E20E94822DA8EFB0E20C93EDE25E
:10257000F1E0AAEDB0E20E94CD294091DA2000916D
:10258000F820041711F40C94CB12EDE2F1E0A8EF5F
:10259000B0E20E94AB29ECE0F0E0AAEDB0E20E94CC
:1025A000CD294091DA200091F720041711F40C9402
:1025B000DF12ECE0F0E0A7EFB0E20E94AB290C9450
:1025C000EB19E0ECFCE50E94F62D11F00C949C1345
:1025D000A9E2B3E20E94822DA4EAB1E20D931C931A
:1025E000E4E2F1E0AAEDB0E20E94CD29AAEDB0E26A
:1025F0004D915527A4EAB1E20D911C9104171507DE
:1026000011F40C940913E4E2F1E0A4EAB1E20E94AF
:10261000AD29AEE2B3E20E94822DACEDB0E20D93A3
:102620001C93ACEDB0E20D911C91003050E0150709
:1026300011F00C9422137091A1217E7F7093A1213F
:102640000C9448137091A12171607093A121ACED9D
:10265000B0E28D919C91A3ECB1E28D939C93EBE25F
:10266000F1E0ACEDB0E20E94CF29ACEDB0E24D91CB
:102670005C91A3ECB1E20D911C910417150711F4C4
:102680000C944813EBE2F1E0A3ECB1E20E94AD2917
:10269000A3E3B3E2E4ECFCE50E94F62D11F00C9408
:1026A00058137091A1217D7F7093A1210C945D132B
:1026B0007091A12172607093A121A8E3B3E2E4ECD0
:1026C000FCE50E94F62D11F00C9477137091A12176
:1026D0007B7F7093A1217091A121777F7093A121BD
:1026E0007091A1217F7E7093A1210C94861370912B
:1026F000A12174607093A1217091A12178607093E1
:10270000A1217091A12170617093A121EAE2F1E011
:10271000AAEDB0E20E94CD294091DA200091A121DA
:10272000041711F40C949A13EAE2F1E0A1EAB1E281
:102730000E94AB290C94EB19E6ECFCE50E94F62D07
:1027400011F00C944D1481E08093332000913320DC
:10275000083118F011F00C944B140091332042E032
:10276000040FABEDB0E20C93ABEDB0E20D9111278D
:1027700045E050E00E94A12AAAE1B3E2A00FB11FF8
:102780000E94822DA3E3B0E2AD90BB24A1E0B1E2B0
:10279000AA0DBB1D0C93E3E3F0E2A190BB24E0E1A2
:1027A000F0E0EA0DFB1DAAEDB0E20E94CD294091B8
:1027B000DA20A3E3B0E2AD90BB24A1E0B1E2AA0D20
:1027C000BB1D0C91041711F40C94F813E3E3F0E231
:1027D000A190BB24E0E1F0E0EA0DFB1DA3E3B0E231
:1027E000AD90BB24A1E0B1E2AA0DBB1D0E94AB29B4
:1027F000009133204AE1040FABEDB0E20C93ABED56
:10280000B0E20D91112745E050E00E94A12AAAE113
:10281000B3E2A00FB11F0E94822DA3E3B0E2AD90FE
:10282000BB24A9E1B1E2AA0DBB1D0C93E3E3F0E2E6
:10283000A190BB24E8E2F0E0EA0DFB1DAAEDB0E2B6
:102840000E94CD294091DA20A3E3B0E2AD90BB24F1
:10285000A9E1B1E2AA0DBB1D0C91041711F40C946F
:102860004314E3E3F0E2A190BB24E8E2F0E0EA0DD8
:10287000FB1DA3E3B0E2AD90BB24A9E1B1E2AA0D38
:10288000BB1D0E94AB29A3E3B0E28C918F5F8C93B8
:1028900010F40C94A6130C94EB19ECECFCE50E94DC
:1028A000F62D11F00C94FE1481E0809333200091FA
:1028B0003320083118F011F00C94FC1400913320EF
:1028C00042E0040FABEDB0E20C93ABEDB0E20D9142
:1028D000112745E050E00E94A12AAAE1B3E2A00F2F
:1028E000B11F0E94822DA3E3B0E2AD90BB24A8E308
:1028F000B1E2AA0DBB1D0C93E3E3F0E2A190BB246F
:10290000E4E4F0E0EA0DFB1DAAEDB0E20E94CD295F
:102910004091DA20A3E3B0E2AD90BB24A8E3B1E29A
:10292000AA0DBB1D0C91041711F40C94A914E3E338
:10293000F0E2A190BB24E4E4F0E0EA0DFB1DA3E388
:10294000B0E2AD90BB24A8E3B1E2AA0DBB1D0E948A
:10295000AB29009133204AE1040FABEDB0E20C93B8
:10296000ABEDB0E20D91112745E050E00E94A12AA5
:10297000AAE1B3E2A00FB11F0E94822DA3E3B0E24F
:10298000AD90BB24A0E5B1E2AA0DBB1D0C93E3E31F
:10299000F0E2A190BB24ECE5F0E0EA0DFB1DAAED0E
:1029A000B0E20E94CD294091DA20A3E3B0E2AD90DD
:1029B000BB24A0E5B1E2AA0DBB1D0C91041711F4D4
:1029C0000C94F414E3E3F0E2A190BB24ECE5F0E016
:1029D000EA0DFB1DA3E3B0E2AD90BB24A0E5B1E29C
:1029E000AA0DBB1D0E94AB29A3E3B0E28C918F5FBF
:1029F0008C9310F40C9457140C94EB19E2EDFCE555
:102A00000E94F62D11F00C94AF1581E080933320D5
:102A100000913320083118F011F00C94AD1500919D
:102A2000332042E0040FABEDB0E20C93ABEDB0E22B
:102A30000D91112745E050E00E94A12AAAE1B3E2DE
:102A4000A00FB11F0E94822DA3E3B0E2AD90BB2482
:102A5000AFE6B1E2AA0DBB1D0C93E3E3F0E2A19057
:102A6000BB24E8E7F0E0EA0DFB1DAAEDB0E20E940E
:102A7000CD294091DA20A3E3B0E2AD90BB24AFE6CC
:102A8000B1E2AA0DBB1D0C91041711F40C945A1558
:102A9000E3E3F0E2A190BB24E8E7F0E0EA0DFB1DE0
:102AA000A3E3B0E2AD90BB24AFE6B1E2AA0DBB1D3B
:102AB0000E94AB29009133204AE1040FABEDB0E254
:102AC0000C93ABEDB0E20D91112745E050E00E9470
:102AD000A12AAAE1B3E2A00FB11F0E94822DA3E3B5
:102AE000B0E2AD90BB24A7E8B1E2AA0DBB1D0C93E8
:102AF000E3E3F0E2A190BB24E0E9F0E0EA0DFB1D86
:102B0000AAEDB0E20E94CD294091DA20A3E3B0E221
:102B1000AD90BB24A7E8B1E2AA0DBB1D0C91041730
:102B200011F40C94A515E3E3F0E2A190BB24E0E9D5
:102B3000F0E0EA0DFB1DA3E3B0E2AD90BB24A7E8F3
:102B4000B1E2AA0DBB1D0E94AB29A3E3B0E28C91B8
:102B50008F5F8C9310F40C9408150C94EB19E8ED2E
:102B6000FCE50E94F62D11F00C946216A9E2B3E286
:102B70000E94822DA1E0B1E20C93E0E1F0E0AAED29
:102B8000B0E20E94CD294091DA2000910121041782
:102B900011F40C94D115E0E1F0E0A1E0B1E20E9463
:102BA000AB29AEE2B3E20E94822DAEEFB0E20C930D
:102BB000EEE0F0E0AAEDB0E20E94CD294091DA20EB
:102BC0000091FE20041711F40C94EC15EEE0F0E0F7
:102BD000AEEFB0E20E94AB29A3E3B3E20E94822DE4
:102BE000ADEFB0E20C93EDE0F0E0AAEDB0E20E94B0
:102BF000CD294091DA200091FD20041711F40C94A6
:102C00000716EDE0F0E0ADEFB0E20E94AB29A8E3DB
:102C1000B3E2E4ECFCE50E94F62D11F00C941716DB
:102C20007091FB207F7E7093FB200C941C1670919A
:102C3000FB2070617093FB20ADE3B3E2E4ECFCE5B4
:102C40000E94F62D11F00C942C167091FB207F7DC4
:102C50007093FB200C9431167091FB20706270937E
:102C6000FB20E9EAF0E0AAEDB0E20E94CD29409114
:102C7000DA200091FB20041711F40C944516E9EAC0
:102C8000F0E0ABEFB0E20E94AB29A2E4B3E20E9415
:102C9000822DA0E0B1E20C93EFE0F0E0AAEDB0E20B
:102CA0000E94CD294091DA2000910021041711F4EF
:102CB0000C946016EFE0F0E0A0E0B1E20E94AB29D6
:102CC0000C94EB19EEEDFCE50E94F62D11F00C943E
:102CD0001517A9E2B3E20E94822DA8E3B1E20C939A
:102CE000E4E4F0E0AAEDB0E20E94CD294091DA20C0
:102CF00000913821041711F40C948416E4E4F0E0F8
:102D0000A8E3B1E20E94AB29AEE2B3E20E94822DB9
:102D1000A5E3B1E20C93E2E4F0E0AAEDB0E20E9498
:102D2000CD294091DA2000913521041711F40C943B
:102D30009F16E2E4F0E0A5E3B1E20E94AB29A3E331
:102D4000B3E20E94822DA4E3B1E20C93E1E4F0E04F
:102D5000AAEDB0E20E94CD294091DA200091342101
:102D6000041711F40C94BA16E1E4F0E0A4E3B1E224
:102D70000E94AB29A8E3B3E2E4ECFCE50E94F62D47
:102D800011F00C94CA167091FB207B7F7093FB208E
:102D90000C94CF167091FB2074607093FB20ADE310
:102DA000B3E2E4ECFCE50E94F62D11F00C94DF1682
:102DB0007091FB20777F7093FB200C94E416709148
:102DC000FB2078607093FB20E9EAF0E0AAEDB0E226
:102DD0000E94CD294091DA200091FB20041711F4C4
:102DE0000C94F816E9EAF0E0ABEFB0E20E94AB29F0
:102DF000A2E4B3E20E94822DA7E3B1E20C93E3E4E4
:102E0000F0E0AAEDB0E20E94CD294091DA200091D5
:102E10003721041711F40C941317E3E4F0E0A7E34F
:102E2000B1E20E94AB290C94EB19E4EEFCE50E94A0
:102E3000F62D11F00C94C817A9E2B3E20E94822D7E
:102E4000AFE6B1E20C93E8E7F0E0AAEDB0E20E9451
:102E5000CD294091DA2000916F21041711F40C94D0
:102E60003717E8E7F0E0AFE6B1E20E94AB29AEE247
:102E7000B3E20E94822DACE6B1E20C93E6E7F0E00B
:102E8000AAEDB0E20E94CD294091DA2000916C2198
:102E9000041711F40C945217E6E7F0E0ACE6B1E247
:102EA0000E94AB29A3E3B3E20E94822DABE6B1E21C
:102EB0000C93E5E7F0E0AAEDB0E20E94CD29409145
:102EC000DA2000916B21041711F40C946D17E5E7DB
:102ED000F0E0ABE6B1E20E94AB29A8E3B3E2E4EC98
:102EE000FCE50E94F62D11F00C947D177091FB20EB
:102EF0007E7F7093FB200C9482177091FB20716091
:102F00007093FB20ADE3B3E2E4ECFCE50E94F62D08
:102F100011F00C9492177091FB207D7F7093FB2031
:102F20000C9497177091FB2072607093FB20E9EA74
:102F3000F0E0AAEDB0E20E94CD294091DA200091A4
:102F4000FB20041711F40C94AB17E9EAF0E0ABEFA7
:102F5000B0E20E94AB29A2E4B3E20E94822DAEE669
:102F6000B1E20C93E7E7F0E0AAEDB0E20E94CD29D0
:102F70004091DA2000916E21041711F40C94C617C9
:102F8000E7E7F0E0AEE6B1E20E94AB290C94EB1962
:102F9000EAEEFCE50E94F62D11F00C94A01881E0F9
:102FA0008093332000913320083118F011F00C94F5
:102FB00041180091332042E0040FABEDB0E20C93D6
:102FC000EBEDF0E20191112745E050E00E94A12ACB
:102FD000EAE1F3E2E00FF11FA3E3B0E20D91112764
:102FE00045E050E00E94A12AA7E4B0E2A00FB11F83
:102FF0000E94CD2DE3E3F0E20191112745E050E07E
:103000000E94A12AE7EAF0E0E00FF11FAEEEB0E285
:1030100094E00E94D829EEEEF0E2A3E3B0E20D9135
:10302000112745E050E00E94A12AA7E4B0E2A00FDA
:10303000B11F0E94F82D11F40C943918E3E3F0E26B
:103040000191112745E050E00E94A12AE7EAF0E053
:10305000E00FF11FA3E3B0E20D91112745E050E02E
:103060000E94A12AA7E4B0E2A00FB11F7BE70E9453
:10307000C629A3E3B0E28C918F5F8C9310F40C947B
:10308000D21781E08093332000913320033018F071
:1030900011F00C949E18009133204AE1040FABED1F
:1030A000B0E20C93ABEDB0E20D91112745E050E09A
:1030B0000E94A12AAAE1B3E2A00FB11F0E94822DB3
:1030C000A3E3B0E2AD90BB24A4EDB0E2AA0DBB1D1A
:1030D0000C93E3E3F0E2A190BB24E7E0F0E0EA0D1B
:1030E000FB1DAAEDB0E20E94CD294091DA20A3E3B6
:1030F000B0E2AD90BB24A4EDB0E2AA0DBB1D0C91D3
:10310000041711F40C949618E3E3F0E2A190BB24A9
:10311000E7E0F0E0EA0DFB1DA3E3B0E2AD90BB24D5
:10312000A4EDB0E2AA0DBB1D0E94AB29A3E3B0E25F
:103130008C918F5F8C9310F40C9444180C94EB19C1
:10314000E0EFFCE50E94F62D11F00C94061981E0E9
:103150008093332000913320083018F011F00C9444
:1031600004190091332042E0040FABEDB0E20C9360
:10317000ABEDB0E20D91112745E050E00E94A12A8D
:10318000AAE1B3E2A00FB11F0E94822DA3E3B0E237
:10319000AD90BB24A3ECB0E2AA0DBB1D0C93E3E3FE
:1031A000F0E2A190BB24EFEFFFEFEA0DFB1DAAEDCB
:1031B000B0E20E94CD294091DA20A3E3B0E2AD90C5
:1031C000BB24A3ECB0E2AA0DBB1D0C91041711F4B3
:1031D0000C94FC18E3E3F0E2A190BB24EFEFFFEFC7
:1031E000EA0DFB1DA3E3B0E2AD90BB24A3ECB0E27B
:1031F000AA0DBB1D0E94AB29A3E3B0E28C918F5FA7
:103200008C9310F40C94AA180C94EB19E6EFFCE5DF
:103210000E94F62D11F00C946A19A9E2B3E20E9403
:10322000822DABEDB0E20C93ABEDB0E28C9199271F
:103230008093380A9093390AEBEAF0E0AAEDB0E205
:103240000E94CD294091DA200091DB20041711F46F
:103250000C943019EBEAF0E0ABEDB0E20E94AB2940
:10326000AEE2B3E20E94822DA2EDB0E20C93EAEA54
:10327000F0E0AAEDB0E20E94CD294091DA20009161
:10328000D220041711F40C944B19EAEAF0E0A2EDF5
:10329000B0E20E94AB290E94B425A3E3B3E20E94EE
:1032A000822DA8EDB0E20C93EBE0F0E0AAEDB0E2E5
:1032B0000E94CD294091DA200091D820041711F402
:1032C0000C946819EBE0F0E0A8EDB0E20E94AB29A5
:1032D0000C94EB19ECEFFCE50E94F62D11F00C9428
:1032E000EB19A9E2B3E20E94822DADECB0E20C939F
:1032F000E6E2F1E0AAEDB0E20E94CD294091DA20A9
:103300000091CD20041711F40C948C19E6E2F1E041
:10331000ADECB0E20E94AB2981E0809333200091B4
:103320003320033018F011F00C94E9190091332088
:1033300043E0040FABEDB0E20C93ABEDB0E20D91C6
:10334000112745E050E00E94A12AAAE1B3E2A00FB4
:10335000B11F0E94822DA3E3B0E2AD90BB24AEEC7E
:10336000B0E2AA0DBB1D0C93E3E3F0E2A190BB24F5
:10337000E6E2F1E0EA0DFB1DAAEDB0E20E94CD29E4
:103380004091DA20A3E3B0E2AD90BB24AEECB0E212
:10339000AA0DBB1D0C91041711F40C94E119E3E381
:1033A000F0E2A190BB24E6E2F1E0EA0DFB1DA3E30D
:1033B000B0E2AD90BB24AEECB0E2AA0DBB1D0E9402
:1033C000AB29A3E3B0E28C918F5F8C9310F40C9443
:1033D0008F190E94801C0C94E1043FBE81E00E9482
:1033E0009B2A85E00E949B2AAC81BD818C91AA8199
:1033F000BB818C9391E0AA81BB810E94ED2AAA81B6
:10340000BB810C91043610F00C944E1AAA81BB813A
:103410000C910A3010F00C94251AA881B981E0E0D3
:10342000FDE50E94CE2AA881B9810E94C227EA81C7
:10343000FB810E94402DA881B9810E94C227E2E051
:10344000FDE50E94CE2A0C94331AA881B981EA8145
:10345000FB810E94402DA881B9810E94C227E2E031
:10346000FDE50E94CE2AAC81BD810C9100FB16F0D7
:103470000C94441AA881B9810E94C227E4E0FDE5BA
:103480000E94CE2A0C944C1AA881B9810E94C227AE
:10349000E4ECFCE50E94CE2A0C94541AA881B98170
:1034A000E6E0FDE50E94CE2AE881F981AE81BF8188
:1034B0000E94CD2D86E0481A80E0580A249608958F
:1034C0003FBE85E00E949B2AAA81BB810D911C9181
:1034D0000A3050E0150710F00C947E1AA881B981CB
:1034E000ECE0FDE50E94CE2AA881B9810E94C227A6
:1034F000EA81FB810E94312D0C94001BAA81BB81C3
:103500000D911C910A3050E0150781E008F480E02D
:103510008F93AA81BB810D911C91033650E0150752
:1035200081E010F009F080E09F918923882311F455
:103530000C94AA1AA881B981E0E1FDE50E94CE2A87
:10354000A881B9810E94C227EA81FB810E94312DA6
:103550000C94001BAA81BB810D911C91043650E094
:10356000150781E008F480E08F93AA81BB810D915B
:103570001C91073E53E0150781E010F009F080E050
:103580009F918923882311F40C94D61AA881B981BC
:10359000E0E0FDE50E94CE2AA881B9810E94C22701
:1035A000EA81FB810E94312D0C94001BAA81BB8112
:1035B0000D911C91083E53E0150781E008F480E06E
:1035C0008F93AA81BB810D911C910F3057E2150793
:1035D00081E010F009F080E09F918923882311F4A5
:1035E0000C94FA1AA881B981EA81FB810E94312DDD
:1035F0000C94001BA881B981E4E1FDE50E94CE2A6C
:10360000E881F981AC81BD810E94CD2D85E0481A09
:1036100080E0580A229608953FBE84E00E949B2ACB
:10362000AA81BB810C910A3010F00C94271BA88151
:10363000B981E0E1FDE50E94CE2AA881B9810E940E
:10364000C227EA81FB810E94402D0C94531BAA8162
:10365000BB810C910A3081E008F480E08F93AA814D
:10366000BB810C91033681E010F009F080E09F915E
:103670008923882311F40C944D1BA881B981E0E0C3
:10368000FDE50E94CE2AA881B9810E94C227EA8165
:10369000FB810E94402D0C94531BA881B981EA81C3
:1036A000FB810E94402DE881F981AC81BD810E949F
:1036B000CD2D84E0481A80E0580A229608950F9292
:1036C0001F922F923F924F925F927F92AF92BF9242
:1036D0000F931F932F933F934F935F936F937F931A
:1036E0008F939F93AF93BF93CF93DF93EF93FF930A
:1036F0008FB78F93F8940F931F934F935F93AF936C
:10370000BF934FB74F935091B008009120220D3FC7
:1037100078F4A1E2B2E210E0A00FB11F5D931C9318
:103720000395009320224091CC204F7D4093CC20E4
:103730004F914FBFBF91AF915F914F911F910F91EB
:1037400078948F918FBFFF91EF91DF91CF91BF91CF
:10375000AF919F918F917F916F915F914F913F9129
:103760002F911F910F91BF90AF907F905F904F90DE
:103770003F902F901F900F901895F89481E0AAED3C
:10378000B0E2E0EEF7E021E02A930E94732A7894F9
:103790000091DA200F3F11F00C947F1C81E08093A0
:1037A000DA20AEEDB1E24D915C91AAEDB0E20D915F
:1037B00011270417150718F011F00C94681CAAEDD6
:1037C000B0E28C91ACEDB0E28D9388278C93ACED98
:1037D000B0E20E947B27ACEDB0E20D911C9148E075
:1037E00050E00E94A12AACEDB0E20D931C93F89436
:1037F00081E0E0EEF7E00E94212A7894F89455E504
:1038000081E0E0EEF7E00E94462A789481E0809320
:10381000332000913320083018F011F00C94301C44
:103820000091DC2040913320040FABEDB0E20C930B
:10383000F894ABEDB0E2AD90BB24AFEDB1E2AA0DD0
:10384000BB1D5C9181E0E0EEF7E00E94462A78948F
:10385000A3E3B0E28C918F5F8C9310F40C94091C5D
:10386000F8945EEB81E0E0EEF7E00E94462A78945F
:10387000F89481E0ABEDB0E2E0EEF7E021E02A93CE
:103880000E94732A78940091DB200F3F11F00C9472
:10389000551C8CEDAAEDB0E2AD90BB24ABE3B0E2D9
:1038A000AA0DBB1D8C930C94601C8091DB20AAEDAB
:1038B000B0E2AD90BB24ABE3B0E2AA0DBB1D8C938C
:1038C000AAEDB0E28C918F5F8C9310F40C94D11B15
:1038D000F89481E0E0EEF7E00E94212A7894F894D1
:1038E0005CEC81E0E0EEF7E00E94462A7894F894E0
:1038F00054E481E0E0EEF7E00E94462A78940895CF
:103900000091CD20003011F00C94A01CAFECB0E27F
:103910008C91992780933C0990933D09A0EDB0E2EA
:103920008C91992780933A0990933B09A1EDB0E2DD
:103930008C91992780933809909339090C94DE1C57
:10394000013011F00C94B81C80E090E080933C09A9
:1039500090933D0980E090E080933A0990933B0971
:1039600080E090E080933809909339090C94DE1C34
:103970000091CD20023081E008F480E08F93009127
:10398000CD20033081E010F009F080E09F91892381
:10399000882311F40C94DE1C80E090E080933C09B5
:1039A00090933D098FEF90E080933A0990933B0903
:1039B00080E090E0809338099093390980E080930B
:1039C000CE20089500912920003011F00C94D11DD3
:1039D0008FE711E00E94E727EAE1FDE50E94D12789
:1039E0003FB6F894A0E2BEE2BA93AA93A5ECB1E286
:1039F000BA93AA930E94601A24960E94C927EEE106
:103A0000FDE50E94D12780913A0A8093DA20EEE604
:103A1000FCE50E94352CEAEDF0E2D080EE24FF2494
:103A200000270E94582B0E94AA2BAEEDB0E2DD9237
:103A3000ED92FD920D93EEEDF0E20E94002BAAEDC7
:103A4000B0E2DC923FB6F894A0E2BEE2BA93AA9349
:103A5000AAEDB0E2BA93AA930E940C1B24960E948E
:103A6000C927E4E2FDE50E94D1278FE811E00E941A
:103A7000E727E6E2FDE50E94D1273FB6F894A0E2F1
:103A8000BEE2BA93AA93A7ECB1E2BA93AA930E94BA
:103A9000601A24960E94C927EEE1FDE50E94D12715
:103AA00080913C0A8093DA20EEE6FCE50E94352CFA
:103AB000EAEDF0E2D080EE24FF2400270E94582B8C
:103AC0000E94AA2BAEEDB0E2DD92ED92FD920D9335
:103AD000EEEDF0E20E94002BAAEDB0E2DC923FB6E0
:103AE000F894A0E2BEE2BA93AA93AAEDB0E2BA9328
:103AF000AA930E940C1B24960E94C927E4E2FDE5CC
:103B00000E94D1278FE911E00E94E727EAE2FDE554
:103B10000E94D1273FB6F894A0E2BEE2BA93AA93DE
:103B2000A9ECB1E2BA93AA930E94601A24960E946B
:103B3000C927EEE1FDE50E94D12780913E0A8093DE
:103B4000DA20EEE6FCE50E94352CEAEDF0E2D080CA
:103B5000EE24FF2400270E94582B0E94AA2BAEEDD2
:103B6000B0E2DD92ED92FD920D93EEEDF0E20E9457
:103B7000002BAAEDB0E2DC923FB6F894A0E2BEE2E0
:103B8000BA93AA93AAEDB0E2BA93AA930E940C1B2F
:103B900024960E94C927E4E2FDE50E94D1270C94F7
:103BA0004D1F013011F00C94341E8FE711E00E947C
:103BB000E727EEE2FDE50E94D1270091F7200436C9
:103BC00010F00C94E71DE0E0FDE50E94D127009184
:103BD000F7204AE00E94E02DAAEDB0E20C93A0E2AB
:103BE000BEE2EAEDF0E20E94402D0E94C927E2E029
:103BF000FDE50E94D1270091F7204AE00E94E02DC8
:103C0000AAEDB0E28C93A0E2BEE2EAEDF0E20E94FF
:103C1000402D0E94C927E8E3FDE50E94D1278FE8E7
:103C200011E00E94E727ECE3FDE50E94D1278FE930
:103C300011E00E94E727EEE4FDE50E94D1273FB6A0
:103C4000F894A0E2BEE2BA93AA93A1ECB1E2BA93CF
:103C5000AA930E94601A24960E94C927E4E5FDE514
:103C60000E94D1270C944D1F023011F00C946E1E4F
:103C70008FE711E00E94E727EEE5FDE50E94D127DE
:103C8000ABECB1E20E94CB27E6E6FDE50E94D1272E
:103C90008FE811E00E94E727ECE6FDE50E94D127BE
:103CA0008FE911E00E94E727A0EDB1E20E94CB2747
:103CB000EEE7FDE50E94D127A4EDB1E20E94CB27FB
:103CC000EEE7FDE50E94D127A8EDB1E20E94CB27E7
:103CD000E4E2FDE50E94D1270C944D1F033011F062
:103CE0000C944D1F8FE711E00E94E72700913020D0
:103CF000003018F011F00C947F1E0C94B71EE0E019
:103D0000FDE50E94D127A0E3B0E20D91112745E027
:103D100050E00E94A12AA7E4B0E2A00FB11F0E94C8
:103D2000CB27E2E8FDE50E94D1273FB6F894A0E258
:103D3000BEE2BA93AA93A0E3B0E2AD90BB24A3E3A2
:103D4000B0E2AA0DBB1DBA93AA930E94ED19249666
:103D50000E94C927E0E0FDE50E94D12782EF0E9482
:103D60007128E6E8FDE50E94D1270C94BB1EEAE825
:103D7000FDE50E94D1278FE811E00E94E72700911E
:103D80003120003018F011F00C94C81E0C94001F64
:103D9000E0E0FDE50E94D127A1E3B0E20D911127FB
:103DA00045E050E00E94A12AA7E4B0E2A00FB11FB5
:103DB0000E94CB27E2E8FDE50E94D1273FB6F894A8
:103DC000A0E2BEE2BA93AA93A1E3B0E2AD90BB2415
:103DD000A3E3B0E2AA0DBB1DBA93AA930E94ED190A
:103DE00024960E94C927E0E0FDE50E94D12782EFDA
:103DF0000E947128E6E8FDE50E94D1270C94041F7B
:103E0000EAE8FDE50E94D1278FE911E00E94E7274B
:103E100000913220003018F011F00C94111F0C9416
:103E2000491FE0E0FDE50E94D127A2E3B0E20D9139
:103E3000112745E050E00E94A12AA7E4B0E2A00FBC
:103E4000B11F0E94CB27E2E8FDE50E94D1273FB6D3
:103E5000F894A0E2BEE2BA93AA93A2E3B0E2AD90D6
:103E6000BB24A3E3B0E2AA0DBB1DBA93AA930E94A0
:103E7000ED1924960E94C927E0E0FDE50E94D127B4
:103E800082EF0E947128E6E8FDE50E94D1270C949C
:103E90004D1FEAE8FDE50E94D127089580E0809358
:103EA000F62000912920023011F00C945A1F83E073
:103EB0008093292000912920013011F00C94711F6A
:103EC0000091D920003018F011F00C94691F0C9467
:103ED0006E1F82E0809329200C94711F83E08093F1
:103EE000292000912920003011F00C94961F009198
:103EF000D820003018F011F00C94801F0C94851F0E
:103F000081E0809329200C94961F0091D9200030E5
:103F100018F011F00C948E1F0C94931F82E0809384
:103F200029200C94961F83E08093292000912E2055
:103F3000093111F00C94AC1F01E010E020E030E0FA
:103F4000AAE2B0E20D931D932D933C9381E0809300
:103F50002E2080E08093292000912920033011F049
:103F60000C949521A7EDB0E28C91A2EEB0E28D9376
:103F700088278D938D938C9398E0A2EEB0E20E94F7
:103F8000DC2AA2EEB0E20D911D912D913C91A6ED9F
:103F9000B0E24C915527662777270E941F29A2EE91
:103FA000B0E20D931D932D933D9398E0A2EEB0E205
:103FB0000E94DC2AA2EEB0E20D911D912D913C9160
:103FC000A5EDB0E24C915527662777270E941F295F
:103FD000A2EEB0E20D931D932D933D9300912E2000
:103FE000093110F00C943920A2EEB0E20D911D9130
:103FF0002D913C91AAE2B0E24D915D916D917C9141
:104000000E942429A6EEB0E20D931D932D933D93BB
:1040100040E050E060E070E0A6EEB0E20D911D914E
:104020002D913C910E941E2D1CF011F00C941A2031
:104030000C94202080912E20809330200C943920E5
:10404000AEE2B0E28C918F5F8C93AAE2B0E20D9168
:104050001D912D913C9142E050E060E070E00E94A3
:10406000AB2AAAE2B0E20D931D932D933D930C94DD
:10407000EE1F00912E20093110F00C945820AEE272
:10408000B0E28C918F5F8C93AAE2B0E20D911D910A
:104090002D913C9142E050E060E070E00E94AB2A3C
:1040A000AAE2B0E20D931D932D933D930C945B20F7
:1040B00080E08093302000912E20093110F00C9484
:1040C000A620A2EEB0E20D911D912D913C91AAE2A5
:1040D000B0E24D915D916D917C910E942429A6EEF4
:1040E000B0E20D931D932D933D9340E050E060E0CE
:1040F00070E0A6EEB0E20D911D912D913C910E94D1
:104100001E2D1CF011F00C9487200C948D208091B2
:104110002E20809331200C94A620AEE2B0E28C9148
:104120008F5F8C93AAE2B0E20D911D912D913C918D
:1041300042E050E060E070E00E94AB2AAAE2B0E208
:104140000D931D932D933D930C945B2000912E2095
:10415000093110F00C94C520AEE2B0E28C918F5F73
:104160008C93AAE2B0E20D911D912D913C9142E019
:1041700050E060E070E00E94AB2AAAE2B0E20D934A
:104180001D932D933D930C94C82080E080933120A3
:1041900000912E20093110F00C941321A2EEB0E210
:1041A0000D911D912D913C91AAE2B0E24D915D914E
:1041B0006D917C910E942429A6EEB0E20D931D938F
:1041C0002D933D9340E050E060E070E0A6EEB0E259
:1041D0000D911D912D913C910E941E2D1CF011F00E
:1041E0000C94F4200C94FA2080912E20809332209D
:1041F0000C941321AEE2B0E28C918F5F8C93AAE213
:10420000B0E20D911D912D913C9142E050E060E0B3
:1042100070E00E94AB2AAAE2B0E20D931D932D93A9
:104220003D930C94C82000912E20093110F00C947D
:104230009221AEE2B0E28C918F5F8C93AAE2B0E261
:104240000D911D912D913C9142E050E060E070E0B5
:104250000E94AB2AAAE2B0E20D931D932D933D93E9
:1042600080912E208093DA20AAE2B0E20D911D9178
:104270002D913C91AAEEB0E20D931D932D933C93AA
:104280000091DA20093110F00C948721A2EEB0E2FF
:104290000D911D912D913C91AAEEB0E24D915D9151
:1042A0006D917C910E942429A6EEB0E20D931D939E
:1042B0002D933D9340E050E060E070E0A6EEB0E268
:1042C0000D911D912D913C910E941E2D1CF011F01D
:1042D0000C946C210C946E210C948721AAEDB0E211
:1042E0008C918F5F8C93AAEEB0E20D911D912D9170
:1042F0003C9142E050E060E070E00E94AB2AAAEE00
:10430000B0E20D931D932D933D930C9440210091A9
:10431000DA20093111F00C94902189E180932E204C
:104320000C94952180E0809332200E94E21C089535
:1043300081E08093332000913320083018F011F091
:104340000C94EE210091332041E0041BAAEDB0E271
:104350000C9393E0AAEDB0E20E94D42AAAEDB0E259
:104360008C91809321022FEF80E0ACEDB0E2E0E091
:10437000F2E00E94E329ACEDB0E20D911C910F3FF9
:104380005FE0150711F00C94D1218CEDA3E3B0E2AE
:10439000AD90BB24A3E3B0E2AA0DBB1D8C930C949B
:1043A000E62193E0ACEDB0E20E94F52AE4EFFCE4F4
:1043B000ACEDB0E28D919C91A3E3B0E2AD90BB2453
:1043C000A3E3B0E2AA0DBB1D0E944A2CA3E3B0E216
:1043D0008C918F5F8C9310F40C949B210895009125
:1043E000FF20013018F011F00C94F8210C94FF21FB
:1043F0008091FF2081508093FF200C940D2201308A
:1044000011F00C940D228091FF2081508093FF20A9
:10441000ACEFB0E28C918F5F8C930091362101302C
:1044200018F011F00C9416220C941D228091362164
:104430008150809336210C942B22013011F00C9482
:104440002B2280913621815080933621A3E3B1E263
:104450008C918F5F8C9300916D21013018F011F0D9
:104460000C9434220C943B2280916D2181508093D6
:104470006D210C944922013011F00C944922809155
:104480006D21815080936D21AAE6B1E28C918F5FFE
:104490008C930091F920013018F011F00C94522205
:1044A0000C9459228091F92081508093F9200C942A
:1044B0006722013011F00C9467228091F92081501D
:1044C0008093F920AAEFB0E28C918F5F8C930895CE
:1044D000ACECB0E20C9104FB16F00C94982280E056
:1044E0008093D92081E080933320009133200830DD
:1044F00018F011F00C949622A3E3B0E2AD90BB2427
:10450000A3ECB0E2AA0DBB1D8C91A3E3B0E2AD9089
:10451000BB24A3E4B0E2AA0DBB1D8C93A3E3B0E2DD
:104520008C918F5F8C9310F40C9475220C949B22C9
:1045300081E08093D9207091CC2070617093CC2061
:104540000895ACECB0E20C9100FB16F00C94C22282
:1045500080E090E0A1ECB1E28D939C930091FA2071
:10456000023011F00C94BB227091A2217160709303
:10457000A2210C94C0227091A2217E7F7093A2216F
:104580000C945823A6EAB1E28C918F5F8C93A1EB37
:10459000B1E20D911C9122273327A4EAB1E24D919B
:1045A0005C91662777270E94AB2AA2EEB0E20D93BA
:1045B0001D932D933D9300E41AE329E63DE0A2EE1E
:1045C000B0E24D915D916D917C910E94CB28A2EE5D
:1045D000B0E24D935D936D937D938091E220A6EAC6
:1045E000B1E2AD90BB24A6EAB1E2AA0DBB1D8C934B
:1045F0000091A6210A3011F00C94012380E08093F1
:10460000A62181E080933320009133200A3018F0F6
:1046100011F00C942D23A2EEB0E20D911D912D917D
:104620003C91A3E3B0E2AD90BB24A6EAB1E2AA0DAF
:10463000BB1D4C915527662777270E94192DA2EEA6
:10464000B0E20D931D932D933D93A3E3B0E28C91C3
:104650008F5F8C9310F40C940423A2EEB0E20D91C2
:104660001C9145E050E00E94A827A1ECB1E24D93D7
:104670005C93A3ECB1E24D915C91A1ECB1E20D91A0
:104680001C910417150710F40C944D237091A2216E
:104690007E7F7093A2210C9458230091FA2002305F
:1046A00011F00C9458237091A22171607093A22193
:1046B000ACECB0E20C9101FB16F00C94792380E095
:1046C00090E0A5ECB1E28D939C930091FC20023028
:1046D00011F00C9472237091A22170617093A22149
:1046E0000C9477237091A2217F7E7093A2210C9469
:1046F000AA23A5EBB1E20D911C912227332742E0BA
:1047000050E060E070E00E94AB2AA2EEB0E20D93B0
:104710001D932D933D9300EE10E722E730E0A2EECB
:10472000B0E24D915D916D917C910E94CB28A2EEFB
:10473000B0E24D935D936D937D93A2EEB0E28D91C7
:104740009C91A5ECB1E28D939C937091A2217F7E08
:104750007093A221ACECB0E20C9102FB16F00C9429
:10476000CB2380E090E0A7ECB1E28D939C93009185
:104770003321023011F00C94C4237091A22178608F
:104780007093A2210C94C9237091A221777F70931A
:10479000A2210C94FC23A9EBB1E20D911C912227DC
:1047A000332742E050E060E070E00E94AB2AA2EEC6
:1047B000B0E20D931D932D933D9300EE10E722E799
:1047C00030E0A2EEB0E24D915D916D917C910E943E
:1047D000CB28A2EEB0E24D935D936D937D93A2EE54
:1047E000B0E28D919C91A7ECB1E28D939C93709176
:1047F000A221777F7093A221ACECB0E20C9103FB75
:1048000016F00C941D2480E090E0A9ECB1E28D93A9
:104810009C9300916A21023011F00C94162470913F
:10482000A22174607093A2210C941B247091A22188
:104830007B7F7093A2210C944E24ADEBB1E20D91DD
:104840001C912227332742E050E060E070E00E9494
:10485000AB2AA2EEB0E20D931D932D933D9300EE93
:1048600010E722E730E0A2EEB0E24D915D916D914C
:104870007C910E94CB28A2EEB0E24D935D936D93A4
:104880007D93A2EEB0E28D919C91A9ECB1E28D9363
:104890009C937091A2217B7F7093A221F894ACEC41
:1048A000B0E20C9105FB16F00C945D2480E080933F
:1048B0002022A1E2B2E288278C937894ACECB0E29B
:1048C0008C918F6E8C930895A3EAB1E28C9187FB53
:1048D00016F00C9484240091A2214091A12104237C
:1048E000AAEDB0E20C930091DA20003018F011F03C
:1048F0000C947C240C94812471E07093E7070C9451
:10490000842471E07093E6070895A3EAB1E28C91E4
:1049100087FB16F00C94B9247091A3217F777093D4
:10492000A32171E07093E5078AE090E00E943529A9
:1049300071E07093E60782E390E00E94352971E010
:104940007093E5078AE090E00E94352971E070934A
:10495000E60782E390E00E94352971E07093E50755
:104960008AE090E00E94352971E07093E6070C948C
:10497000C8247091A32170687093A32171E0709393
:10498000E50784E690E00E94352971E07093E60720
:10499000089500912820003018F011F00C94D224D2
:1049A0000C94B325ECE9FDE581E08A930E9460292F
:1049B00081E08093332000913320003118F011F012
:1049C0000C940025A0E2BEE2E3E3F0E2A190BB2458
:1049D000E3E3F0E2EA0DFB1D0E94402D81E08A93A3
:1049E0000E945729E6E9FCE581E08A930E9460294C
:1049F000A3E3B0E28C918F5F8C9310F40C94DB24D2
:104A0000A2EAB1E28C9181FBA0E2BEE20E945D2CA1
:104A10008D9388278C9381E08A930E945729A2EA7C
:104A2000B1E28C9182FBA0E2BEE20E945D2C8D93EC
:104A300088278C9381E08A930E945729A2EAB1E2E9
:104A40008C9180FBA0E2BEE20E945D2C8D938827B2
:104A50008C9381E08A930E945729E6E9FCE581E086
:104A60008A930E946029A0E2BEE2E1ECF1E20E949A
:104A7000312D81E08A930E945729E6E9FCE581E027
:104A80008A930E946029A0E2BEE2E5ECF1E20E9476
:104A9000312D81E08A930E945729E6E9FCE581E007
:104AA0008A930E946029A0E2BEE2E7ECF1E20E9454
:104AB000312D81E08A930E945729E6E9FCE581E0E7
:104AC0008A930E946029A0E2BEE2E9ECF1E20E9432
:104AD000312D81E08A930E945729E6E9FCE581E0C7
:104AE0008A930E94602980913A0A8093DA20A0E29A
:104AF000BEE2EAEDF0E20E94402D81E08A930E943E
:104B00005729E6E9FCE581E08A930E9460298091BB
:104B10003C0A8093DA20A0E2BEE2EAEDF0E20E94D5
:104B2000402D81E08A930E945729E6E9FCE581E067
:104B30008A930E94602980913E0A8093DA20A0E245
:104B4000BEE2EAEDF0E20E94402D81E08A930E94ED
:104B50005729E6E9FCE581E08A930E94602981E01B
:104B60008A930E94682908950091D2204FE004237F
:104B7000A3EDB0E20C93A3EDB0E28C9180598C933D
:104B80008091D2208093D42094E0A4EDB0E20E94E2
:104B9000ED2AA4EDB0E28C9183708C93A4EDB0E289
:104BA0008C918C5A8C9389E2A6D28091D320A3D287
:104BB0008091D420A0D288E29ED20895F8940F93D9
:104BC0001F934F935F934FB74F9300912808109115
:104BD00029084091B3215091B4210093B32110933F
:104BE000B421041B150B48F00093B1211093B2219E
:104BF0004091CC204E7F4093CC204F914FBF5F918E
:104C00004F911F910F9178941895F8940F931F93DB
:104C10004F935F934FB74F9300912A0810912B0841
:104C20004091B7215091B8210093B7211093B8213A
:104C3000041B150B48F00093B5211093B621409149
:104C4000CC204D7F4093CC204F914FBF5F914F912F
:104C50001F910F9178941895F8940F931F934F9389
:104C60005F934FB74F9300912C0810912D084091FE
:104C7000BB215091BC210093BB211093BC21041B8C
:104C8000150B48F00093B9211093BA214091CC2024
:104C90004B7F4093CC204F914FBF5F914F911F911D
:104CA0000F9178941895F8940F931F934F935F93F7
:104CB0004FB74F9300912E0810912F084091BF21BC
:104CC0005091C0210093BF211093C021041B150BEC
:104CD00048F00093BD211093BE214091CC20477F26
:104CE0004093CC204F914FBF5F914F911F910F91F7
:104CF00078941895C6C6C6C6C6C6C6C6C6C6C6C6B3
:104D0000C6C6C6C6C6C6C6C6C6C6C6C6C6C6C6C643
:104D1000C6C6C6C6C6C6C6C6C6C6C6C6C6C5C3C13C
:104D2000BFBDBBB9B7B6B4B3B1AFAEACABAAA8A761
:104D3000A6A4A3A2A19F9E9D9C9B9A9998969594A8
:104D400093929191908F8E8D8C8B8A89898887869A
:104D500085858483828181807F7F7E7D7C7C7B7A58
:104D60007A797878777776757574737372727171F2
:104D7000706F6F6E6E6D6D6C6C6B6B6A6A69696873
:104D800068676766666565646463636262626161E1
:104D900060605F5F5E5E5E5D5D5C5C5C5B5B5A5A43
:104DA0005A59595858585757575656555555545497
:104DB000545353535252525151515050504F4F4FE0
:104DC0004E4E4E4D4D4D4C4C4C4B4B4B4A4A4A4A25
:104DD0004949494848484747474746464645454563
:104DE0004544444444434343424242424141414199
:104DF000404040403F3F3F3F3E3E3E3E3D3D3D3DCB
:104E00003C3C3C3C3B3B3B3B3A3A3A3A39393939FA
:104E10003938383838373737373636363636353525
:104E2000353535343434343333333333323232324C
:104E300032313131313130303030302F2F2F2F2F70
:104E40002E2E2E2E2E2D2D2D2D2D2C2C2C2C2C2B94
:104E50002B2B2B2B2B2A2A2A2A2A292929292929B3
:104E600028282828282727272727272626262626D2
:104E700026252525252524242424242423232323EF
:104E80002323222222222222212121212121212009
:104E900020202020201F1F1F1F1F1F1E1E1E1E1E22
:104EA0001E1E1D1D1D1D1D1D1C1C1C1C1C1C1C1B39
:104EB0001B1B1B1B1B1A1A1A1A1A1A1A1919191951
:104EC0001919191818181818181817171717171765
:104ED000171616161616161615151515151515147A
:104EE000141414141414141313131313131312128D
:104EF0001212121281E0ED91FC91E150F040FC930E
:104F0000EE93089509D00E94A12A00FC10D00895C4
:104F100003D01ED001F8F9CF0024E89457FF02C057
:104F200009D0689400F80BD010F80124089502D03D
:104F300009D00895509540954F5F5F4F0895E894CC
:104F400017FF0895009510950F5F1F4F68940895FF
:104F5000352F242FE894452B11F468940895512F90
:104F6000402F0027112780E1440F551F001F111FFC
:104F7000021B130B416018F4020F131F4E7F8A951A
:104F800099F708958F938D918823E9F711978F9161
:104F90000895A0E2BEE28D91882311F0A2D0FBCF4C
:104FA00008950E94312C802D11F09BD0FACF0895E6
:104FB00081E0A1D015D080E89EC08FE7213039F084
:104FC0008FE8223021F08FE9233009F083ED810F43
:104FD0000C947B2888EE93E048D13197D9F7089557
:104FE00083E0992742C18AEF90E00E94352970E260
:104FF0007093410670E17093410678E0709341062A
:1050000074E07093410674E07093210678E0709329
:10501000210678E07093260685E090E00E9435290D
:1050200074E07093260670E27093460670E1709308
:10503000460678E07093450674E07093450674E088
:1050400070932506EF93FF93ECE1F3E00E9429298A
:10505000FF91EF9174E07093260604D174E0709391
:105060002506EF93FF93ECE1F3E00E942929FF91DD
:10507000EF9174E070932606F5D074E070932506E6
:10508000EF93FF93ECE1F3E00E942929FF91EF9168
:1050900074E070932606E6D074E07093460674E0E0
:1050A00070932506EF93FF93ECE1F3E00E9429292A
:1050B000FF91EF9174E070932606D4D089E21BD063
:1050C00085E119D085E517D08EE615D080E713D09D
:1050D00088E211D088E20FD08EE00DD086E00BD0B0
:1050E000089570912406786070932406829509D003
:1050F00008D0B8D0089570912406777F7093240665
:10510000F5CF859530F47091440674607093440631
:1051100005C0709144067B7F70934406859530F4FA
:105120007091440678607093440605C070914406FF
:10513000777F70934406859530F4709144067061D2
:105140007093440605C0709144067F7E70934406B8
:10515000859530F47091440670627093440605C0E2
:10516000709144067F7D70934406709124067460AC
:1051700070932406EF93FF93ECE1F3E00E9429295A
:10518000FF91EF91709124067B7F70932406089520
:1051900000FC05D0089530D005D001F8F9CF37D004
:1051A0003FD00895842F952FA62FB72FE894452B35
:1051B000462B472B11F468940895402F512F622FEE
:1051C000732F0027112722273327F0E2440F551FA2
:1051D000661F771F001F111F221F331F081B190B8B
:1051E0002A0B3B0B416028F4080F191F2A1F3B1F95
:1051F0004E7FFA9559F708950024E89477FF02C08E
:1052000006D0689400F809D010F80124089512D04F
:105210004F5F5F4F6F4F7F4F0895E89437FF0895BA
:1052200000951095209530950F5F1F4F2F4F3F4FE2
:105230006894089540955095609570950895042B55
:10524000152B262B372B08950423152326233723CC
:1052500008953197F1F70895689462F80895E894F5
:1052600062F8089581E090E000C0EF93FF93EE278D
:10527000E82BE92B31F0E0E4FFE13197F1F70197FA
:10528000D1F7FF91EF9108957991A0EA769508F40E
:10529000A0EBB8E0B70F0895F7DF149688E18D937F
:1052A00089918D9389918D9389918D930895A0E231
:1052B000BEE28D91882311F00FD0FBCF2196089587
:1052C0000E94312C802D11F007D0FACF219608953D
:1052D0008DE002D08AE002C078817A93BF93AF93C9
:1052E000D3DF11967C9175FFFDCF11978C93AF9111
:1052F000BF9108958F939F93AF93BF93882790E2B8
:10530000A0E0B0E28D939A95E9F7BF91AF919F919C
:105310008F9108958F9380910020881F80930020A3
:1053200080910120881F8093012080910220881F96
:105330008093022080910320881F80930320809116
:105340000420881F809304208F9108957091CF01CD
:1053500077FDFCCF089591E001C092E0E050F04F5E
:10536000F5DF8D910024E093C001F093C10100921C
:10537000C201819375E37093CA0178ED7093340094
:1053800071E07093CB019A9559F70895E050F04F72
:1053900091E0E6DF8823E1F7089591E001C092E013
:1053A000E050F04FD3DF81918D939A95D9F708950E
:1053B000E050F04FCBDF81918D93882319F09A95BF
:1053C000C9F79D9308953327982F990F01E08823FB
:1053D00021F0000F385F8A95E1F72F3F39F0BF01C8
:1053E000B196E30F3327F31F2083FB010683802F41
:1053F000880F880F81601081107C182B10838681A4
:105400008023E9F37096E90F9927F91F81918D9315
:1054100081918D93089542E0FF274093CA018491C2
:1054200040E04093CA0108950081818314818683FE
:10543000EF93FF93ECE2F0E00E942929FF91EF91B6
:1054400008950E942F290E944D2CEEDFEF93FF93C9
:10545000ECEFFEE00E942929FF91EF918583828382
:10546000EF93FF93ECE7F2E00E942929FF91EF917F
:105470001085182311F00E942C29EF93FF93ECEF75
:10548000FEE00E942929FF91EF9108950E944D2C82
:1054900021E048E005C00E944D2C29915D9148E033
:1054A000C3DF579550F48583EF93FF93ECEFF1E062
:1054B0000E942929FF91EF9111C0EF93FF93ECED2A
:1054C000F1E00E942929FF91EF918583EF93FF93EB
:1054D000ECE0F0E00E942929FF91EF914A9501F755
:1054E0002A95E1F608950E944D2C299148E0552710
:1054F0009BDF8283EF93FF93ECE5F0E00E94292984
:10550000FF91EF9188941085182309F0089457951E
:10551000EF93FF93ECE8F1E00E942929FF91EF91CE
:105520004A9531F75D932A9509F708955A924A9260
:10553000480E591E08955A924A92480E8827581EBE
:1055400008950F92B801469F8001479F100D569F06
:10555000100D0F9008950F921F922F92C801D9013C
:10556000489F80014A9F90014B9F202C499F100D1E
:10557000211D321D5A9F202C589F100D211D321DB8
:10558000599F200D311D689F200D311D699F300DE1
:10559000789F300D2F901F900F9008950E94312C0E
:1055A0000D920020D9F70895903029F08C91880F42
:1055B0009A95E9F78C930895903071F00D911D91B3
:1055C0002D913C91000F111F221F331F9A95D1F787
:1055D0003C932E931E930E930895903029F08C9156
:1055E00086959A95E9F78C930895903041F00D9146
:1055F0001C91169507959A95E1F71C930E930895C3
:1056000033D0992711278F2D880F80E8F82A802F13
:10561000881F08F41FEF41F08F57082F07FD04C0C3
:10562000003240F08FEF01C08827982FD82EE82E47
:10563000F82E09C08FE1801B082FF694E794D794C9
:1056400097950A95D1F7112351F09095D094E09455
:10565000F09481E0980F8827D81EE81EF81E0F2DC1
:10566000FE2CED2CD92E0895D190E190F19001916E
:10567000089521913191419151910895102F90E811
:10568000FF0C001F0927990FF7941078652F90E8F9
:10569000440F551F5927990F479560780038089592
:1056A000FF0C90E89027110F9795F794092F089514
:1056B000102FBD2CDE2CEF2CF02E11234AF4B094C9
:1056C000D094E094F0949FEFB91AD90AE90AF90A44
:1056D0000EE1FF2039F4FE2CED2CDB2CBB2408500E
:1056E000C2F76CC032F00A95BB0CDD1CEE1CFF1C2F
:1056F000F9CF0E947C2BD4CFB7FE089590E8B9165D
:1057000011F4D0FE08959FEFD91AE90AF90A09F4B5
:1057100003950895DD92ED92FD920C930895502F1C
:105720002D2D3E2D4F2D612F08952DEC3CEC4CEC92
:105730005DE366270FC098DFF2DFDD24EE2490E8FA
:10574000F92E0FE307C095DF05C02227332740E27B
:1057500051E46627552351F1002381F18FDF71F168
:105760001627005850580894050B18F407FD03C07D
:1057700025C007FD23C0469537952795F694E794F5
:10578000D79422D0FF202AF0DD0CEE1CFF1C015024
:1057900073F09D2D969548F0DD203AF4EE202AF422
:1057A00091E0D90E9927E91EF91E7ACF07C09FE72D
:1057B000092FF92A9FEFD92EE92E0895DD24EE2432
:1057C000FF240027112708959F929924AA24BB241F
:1057D00088E1D216E306F40628F0D21AE30AF40AA6
:1057E000089401C08894991CAA1CBB1CDD0CEE1CFB
:1057F000FF1C8A9571F7D92CEA2CFB2C9F900895F9
:105800003DDFE1F25038D1F2162700585058089485
:10581000051F12F418F4CBCF08F0D0CF0BD0FF2027
:105820002AF0BB0CDD1CEE1CFF1C3ACF0F5F0BF403
:10583000BECF36CF9F929924AA24BB24992788E112
:10584000990CAA1CBB1CDD1CEE1CFF1C30F4920E34
:10585000A31EB41ED91EE91EF91E8A9589F79F90D2
:105860000895C895319600200895FBDF202DF9DFBB
:10587000302DF7DF402DF5DF502D089591E005C064
:1058800092E003C094E001C098E0EBDF0D929A959E
:10589000E1F70895E80FF91FF1CF91E0882321F097
:1058A0008894991F8A95E9F7892F909508958830F3
:1058B00018F011968850FBCF089580E30EF483957D
:1058C0000895B2DD09230083EF93FF93E4E4F0E051
:1058D0000E942929FF91EF91E8941085182309F07F
:1058E0006894EF93FF93E4EBF1E00E942929FF9184
:1058F000EF91089599DD16F4182B1483EF93FF931D
:10590000ECEAF1E00E942929FF91EF91182B148312
:10591000EF93FF93ECE4F0E00E942929FF91EF91CF
:10592000089533273093212430931E248ADD0EF40A
:1059300058C030911E2430FD54C066276093202447
:10594000639560931F2421E050EF48E0A9DDB9DFA3
:1059500031F9B7DF32F9632F6670663009F441C060
:10596000603019F031FB40D025C060911F24709148
:1059700021246717B1F0C0F48F939F93862F8A95E7
:10598000A2E2B4E294DF89DF7C91782368947723E4
:1059900029F4E89460911F24609320249F918F91B3
:1059A00009C0689421D006C0E8941ED060911F24DD
:1059B000609320249FDF60911F24639560931F24D0
:1059C000613409F0C4CF60912024609321246623C0
:1059D000E89409F4689430F930931E24E89462F84E
:1059E0000895689462F808958F939F93A2E2B4E2B9
:1059F00080911F248A955BDF50DF7C9116F4782B11
:105A000001C079237C939F918F9108958F9389DFB3
:105A10008F91A0E0B0E056F011968F93AF93BF93B3
:105A200085DFBF91AF918F910EF0F6CF0A2F1B2F1C
:105A30000895040F151F261F371F08950417150713
:105A4000260737070895000F111F221F331F0895DF
:105A500000951095209530950F5F1F4F2F4F3F4FAA
:105A60000895019110810EC0019111912191308111
:105A70000BC00191108117FF05C03FEF2FEF04C04D
:105A8000008111272227332737FF03C0E1DF8DE292
:105A90008D93CF93DF930E947A2940E2C0E0D0E259
:105AA00055E093E38881890F87FD9F7083FD907F88
:105AB000891B89935A95A9F7C6DF0E948A294A95BE
:105AC00069F7E894E0E0F0E20E2E039435968291B7
:105AD0000CD0E015E0F726F068948091002009D002
