:100000000C94000118950000189500001895000048
:10001000189500001895000018950000189500002C
:10002000189500001895000018950000189500001C
:10003000189500001895000018950000189500000C
:100040000C9440290C9467290C948E290C94B529A2
:1000500018950000189500001895000018950000EC
:1000600018950000189500001895000018950000DC
:100070000C94E71E189500001895000018950000D4
:1000800018950000189500001895000018950000BC
:1000900018950000189500001895000018950000AC
:1000A000189500001895000018950000189500009C
:1000B000189500001895000018950000189500008C
:1000C000189500001895000018950000189500007C
:1000D000189500001895000018950000189500006C
:1000E000189500001895000018950000189500005C
:1000F000189500001895000018950000189500004C
:10010000189500001895000018950000189500003B
:10011000189500001895000018950000189500002B
:10012000189500001895000018950000189500001B
:10013000189500001895000018950000189500000B
:1001400018950000189500001895000018950000FB
:1001500018950000189500001895000018950000EB
:1001600018950000189500001895000018950000DB
:100170001895000018950000FFFFFFFFFFFFFFFF2D
:10018000FFFFFFFFFFFFFFFFFFFFFFFFFFFFFFFF7F
:10019000FFFFFFFFFFFFFFFFFFFFFFFFFFFFFFFF6F
:1001A000FFFFFFFFFFFFFFFFFFFFFFFFFFFFFFFF5F
:1001B000FFFFFFFFFFFFFFFFFFFFFFFFFFFFFFFF4F
:1001C000FFFFFFFFFFFFFFFFFFFFFFFFFFFFFFFF3F
:1001D000FFFFFFFFFFFFFFFFFFFFFFFFFFFFFFFF2F
:1001E000FFFFFFFFFFFFFFFFFFFFFFFFFFFFFFFF1F
:1001F000FFFFFFFFFFFFFFFFFFFFFFFFFFFFFFFF0F
:100200008FEF8DBFC0E6E8E34E2E8FE28EBFDFE2B8
:10021000FEE25F2E009078008FE38093780078ED07
:1002200074BF80938000EEEFFFE0A0E0B0E288278B
:100230008D933197E9F70E94552B662470E07093F7
:10024000520077E07093500070E07093560071E0B8
:10025000709360008091510081FFFCCF78ED74BFF6
:1002600071E07093400078ED74BF70E070934100CE
:100270007091CC0178607093CC0101E010E020E037
:1002800030E0AAE2B0E20D931D932D933C9381E000
:1002900080932E2081E08093DA200091DA200A30CA
:1002A00018F011F00C94660182E3AAEDB0E2AD9073
:1002B000BB24AAEDB1E2AA0DBB1D8C93AAEDB0E25E
:1002C0008C918F5F8C9310F40C944D01AFEFB1E2E1
:1002D000E8EFF3E60E94302EA4E0B2E2EEEFF3E6A0
:1002E0000E94302EA8E0B2E2EEEFF3E60E94302E3C
:1002F000ACE0B2E2EEEFF3E60E94302E70E07093D5
:1003000000067CE0709320067CEB709340067FE053
:10031000709360067FE07093800671E07093E00751
:1003200078E17093300678E17093740672E0709310
:10033000310672E07093750672E07093760672E093
:100340007093770681E0809333200091332008304A
:1003500018F011F00C94D801E3E3F0E2A190BB2473
:10036000EFEFFFEFEA0DFB1DA3E3B0E2AD90BB247E
:10037000A3ECB0E2AA0DBB1D0E942F2DA3E3B0E2B7
:10038000AD90BB24A3ECB0E2AA0DBB1D8C91A3E3FE
:10039000B0E2AD90BB24A3E4B0E2AA0DBB1D8C93E8
:1003A000A3E3B0E28C918F5F8C9310F40C94A501C1
:1003B00081E08093332000913320033018F011F056
:1003C0000C94FC01E3E3F0E2A190BB24E7E0F0E051
:1003D000EA0DFB1DA3E3B0E2AD90BB24A4EDB0E2B7
:1003E000AA0DBB1D0E942F2DA3E3B0E28C918F5F5D
:1003F0008C9310F40C94DB01EBE0F0E0A8EDB0E29C
:100400000E942F2D81E08093F720ECE0F0E0A8EF30
:10041000B0E20E942F2DEDE0F0E0A9EFB0E20E94E3
:100420002F2D8091F9208093FA20EEE0F0E0ABEFE1
:10043000B0E20E942F2DEFE0F0E0ACEFB0E20E94BE
:100440002F2D81E08093332000913320083118F064
:1004500011F00C945702E3E3F0E2A190BB24EFE02B
:10046000F0E0EA0DFB1DA3E3B0E2AD90BB24ACEFDE
:10047000B0E2AA0DBB1D0E942F2DE3E3F0E2A19094
:10048000BB24E7E2F0E0EA0DFB1DA3E3B0E2AD9090
:10049000BB24A4E1B1E2AA0DBB1D0E942F2DA3E352
:1004A000B0E28C918F5F8C9310F40C94240281E065
:1004B00080933021E0E4F0E0A1E3B1E20E942F2D2F
:1004C000E1E4F0E0A2E3B1E20E942F2D809132211D
:1004D00080933321E2E4F0E0A4E3B1E20E942F2D07
:1004E000E3E4F0E0A5E3B1E20E942F2D81E08093E8
:1004F000332000913320083118F011F00C94AC0235
:10050000E3E3F0E2A190BB24E3E4F0E0EA0DFB1D9D
:10051000A3E3B0E2AD90BB24A5E3B1E2AA0DBB1DFD
:100520000E942F2DE3E3F0E2A190BB24EBE5F0E085
:10053000EA0DFB1DA3E3B0E2AD90BB24ADE4B1E254
:10054000AA0DBB1D0E942F2DA3E3B0E28C918F5FFB
:100550008C9310F40C94790281E080936721E4E796
:10056000F0E0A8E6B1E20E942F2DE5E7F0E0A9E671
:10057000B1E20E942F2D8091692180936A21E6E7E4
:10058000F0E0ABE6B1E20E942F2DE7E7F0E0ACE649
:10059000B1E20E942F2D81E080933320009133201F
:1005A000083118F011F00C940103E3E3F0E2A1909C
:1005B000BB24E7E7F0E0EA0DFB1DA3E3B0E2AD905A
:1005C000BB24ACE6B1E2AA0DBB1D0E942F2DE3E3D4
:1005D000F0E2A190BB24EFE8F0E0EA0DFB1DA3E3FD
:1005E000B0E2AD90BB24A4E8B1E2AA0DBB1D0E940D
:1005F0002F2DA3E3B0E28C918F5F8C9310F40C94B9
:10060000CE0281E080939E21E8EAF0E0AFE9B1E21A
:100610000E942F2DE9EAF0E0A0EAB1E20E942F2D1E
:100620008091A0218093A121EAEAF0E0A2EAB1E260
:100630000E942F2DEBEAF0E0A3EAB1E20E942F2DF9
:1006400081E08093332000913320083118F011F0BD
:100650000C945603E3E3F0E2A190BB24EBEAF0E054
:10066000EA0DFB1DA3E3B0E2AD90BB24A3EAB1E227
:10067000AA0DBB1D0E942F2DE3E3F0E2A190BB2445
:10068000E3ECF0E0EA0DFB1DA3E3B0E2AD90BB2488
:10069000ABEBB1E2AA0DBB1D0E942F2DA3E3B0E28C
:1006A0008C918F5F8C9310F40C942303ECEDF0E0AD
:1006B000AFE2B1E20E942F2DEDEDF0E0A2EDB0E24D
:1006C0000E942F2DEEEDF0E0AAEDB0E20E942F2D5A
:1006D000AAEDB0E28C9199278093380A9093390A59
:1006E00081E08093332000913320083118F011F01D
:1006F0000C949D03E3E3F0E20191112745E050E003
:100700000E94032EEAEDF0E0E00FF11FA3E3B0E258
:100710000D91112745E050E00E94032EA7E4B0E2BE
:10072000A00FB11F94E00E943A2DA3E3B0E28C9198
:100730008F5F8C9310F40C947303E7E5F1E0A8ED60
:10074000B1E20E94312DE9E5F1E0ADECB0E20E94AA
:100750002F2D81E08093332000913320033018F057
:1007600011F00C94CD03E3E3F0E2A190BB24E9E5A2
:10077000F1E0EA0DFB1DA3E3B0E2AD90BB24AEECCB
:10078000B0E2AA0DBB1D0E942F2DA3E3B0E28C9115
:100790008F5F8C9310F40C94AC03EDE5F1E0A5EDC4
:1007A000B1E20E942F2DEEE5F1E0A7EFB1E20E9449
:1007B000312D0E9416298CE00E94DD2B0E943A2BDD
:1007C00070E87093410688EA8A938EE68A9383E004
:1007D0008A9381E08A930E94AE2C8091B3088F7C2B
:1007E00080618093B30875EF7093010A8FEF90E0FA
:1007F0008093260A9093270A72E07093000A75EF9F
:10080000709301098FEF90E0809326099093270958
:1008100072E0709300090E94D21F79E57093800105
:100820007DE6709381017EE6709382017FE670938E
:10083000830178E27093030870EF709301088FEFE3
:100840009FEF809326089093270876E07093000826
:10085000809107088C7F816080930708809107084A
:10086000837F846080930708809107088F7C806174
:1008700080930708809107088F738064809307082E
:10088000E0E20E946D2DAAEDB0E28C93E1E20E94BD
:100890006D2DABEDB0E28C93AAEDB0E28C9180931C
:1008A0000C02ABEDB0E28C9180930D02A0E0B2E0BF
:1008B00081E08D9380E08D9383E08D9380E08D9334
:1008C00083E08D9381E08093200281E0E0EEF7E009
:1008D0000E94832D81E0E0EEF7E00E94C930A2E1A2
:1008E000B2E20D931C93A2E1B2E20D911C91003093
:1008F00050E0150718F011F00C9480040C948C044F
:1009000081E0E0EEF7E00E945430A4E1B2E2E6E5D7
:10091000F4E298E00E949631A2E1B2E20D911C91BE
:10092000013050E0150718F011F00C9499040C9464
:10093000D2040091122241E0041BABEDB0E20C9313
:1009400081E08093DA204091DB200091DA200417C7
:1009500018F011F00C94D20408E010E0AAEDB0E217
:100960004D9155270E94032EACEDB0E20D931C93E0
:1009700081E0E0EEF7E00E945930ACEDB0E2AD90DE
:10098000BD90A4E1B2E2AA0DBB1DE6E5F4E298E059
:100990000E949631AAEDB0E28C918F5F8C9310F497
:1009A0000C94A304A2E1B2E20D911C91083050E036
:1009B000150710F00C94000588E080933320A2E125
:1009C000B2E24D915C91A3E3B0E20D9111270417BF
:1009D000150718F011F00C94EF040C9400058CED41
:1009E000A3E3B0E2AD90BB24ABE3B0E2AA0DBB1D24
:1009F0008C93809133208150809333200C94DF04BA
:100A000081E0E0EEF7E00E94832D5CEC81E0E0EE17
:100A1000F7E00E94A82D54E481E0E0EEF7E00E94A8
:100A2000A82D8FEF9FEF809366089093670877E07B
:100A30007093400871E07093A20078947091D72170
:100A400070687093D72171E070932206A7EDB1E230
:100A50009C9196FF06C00090280600FE14C09F7B64
:100A60009C930090280600FC0EC089E19F93992773
:100A70000E94972C9F910090280600FC04C090646F
:100A80009C930E94A02270E170936206A7EDB1E2F0
:100A90009C9195FF06C00090680604FE14C09F7DDF
:100AA0009C930090680604FC0EC089E19F939927EF
:100AB0000E94972C9F910090680604FC04C09062ED
:100AC0009C930E94D727A0E6B8E00D911C910533B6
:100AD0005CE0150718F011F00C9470050C94EB0510
:100AE00080E090E08093600890936108A4EFB0E20A
:100AF0008C918F5F8C937091F52071607093F520CD
:100B0000A4EFB0E20C9100FB16F40C948C057091EC
:100B1000F52072607093F5200091F420053081E09B
:100B200009F080E08F930091F4200A3081E009F011
:100B300080E09F91892B882311F40C94B4050E94C6
:100B400034200E94EA24A2E1B2E20D911C9100300F
:100B500050E0150718F011F00C94B0050C94B20594
:100B60000E940F1F0E9441250091F4200A3011F0CD
:100B70000C94C30580E08093F4200E94F3250E942A
:100B8000B6270E941B28A6EFB0E28C918F5F8C9352
:100B90000091F620023311F00C94D0050E94BA2582
:100BA0000091F620043611F00C94EB05A7EDB1E2AC
:100BB0008C9187FB16F40C94E70571E07093E507C0
:100BC0008AE090E00E94972C71E07093E6070E9403
:100BD000BA250E94A0220091CD20013011F00C9482
:100BE000B806A5EFB0E20C9100FB16F00C94B60627
:100BF0007091F5207E7F7093F5200091CE2000301B
:100C000011F00C94210680913C098093DA20AAED22
:100C1000B0E28C918F5F8C93AAEDB0E28C91992712
:100C200080933C0990933D090091DA200F3F11F029
:100C30000C941F06AEECB0E28C918F5F8C930C94F9
:100C4000B606013011F00C94430680913A09809366
:100C5000DA20AAEDB0E28C918F5F8C93AAEDB0E21E
:100C60008C91992780933A0990933B090091DA205F
:100C70000F3F11F00C944106AEECB0E28C918F5F07
:100C80008C930C94B606023011F00C947606809189
:100C900038098093DA20AAEDB0E28C918F5F8C93B3
:100CA000AAEDB0E28C919927809338099093390985
:100CB00080913C098093DA208091DA2081508093E2
:100CC000DA20AAEDB0E28C91992780933C099093A9
:100CD0003D090091DA20003011F00C947406AEEC5E
:100CE000B0E28C918F5F8C930C94B606033011F0B8
:100CF0000C94980680913A098093DA208091DA204A
:100D000081508093DA20AAEDB0E28C9199278093EC
:100D10003A0990933B090091DA20003011F00C94CD
:100D20009606AEECB0E28C918F5F8C930C94B60675
:100D3000043011F00C94B606809138098093DA20C3
:100D40008091DA2081508093DA20AAEDB0E28C9174
:100D5000992780933809909339090091DA2000305F
:100D600011F00C94B60680E08093CE200C94D40849
:100D7000023011F00C94C707A5EFB0E20C9100FB14
:100D800016F00C94C5077091F5207E7F7093F520C6
:100D90000091CE20003011F00C94FD0680913809AE
:100DA0008093DA20AAEDB0E28C918F5F8C93AAED4C
:100DB000B0E28C91992780933809909339098091FA
:100DC0003A098093DA208091DA2081508093DA20EA
:100DD000AAEDB0E28C91992780933A0990933B0950
:100DE0000091DA20003011F00C94FB06AEECB0E27A
:100DF0008C918F5F8C930C94C507013011F00C948B
:100E00001F0780913A098093DA20AAEDB0E28C9115
:100E10008F5F8C93AAEDB0E28C91992780933A0969
:100E200090933B090091DA200F3F11F00C941D07BD
:100E3000AEECB0E28C918F5F8C930C94C5070230BE
:100E400011F00C94410780913C098093DA20AAEDBF
:100E5000B0E28C918F5F8C93AAEDB0E28C919927D0
:100E600080933C0990933D090091DA200F3F11F0E7
:100E70000C943F07AEECB0E28C918F5F8C930C9496
:100E8000C507033011F00C94630780913A098093F1
:100E9000DA208091DA2081508093DA20AAEDB0E246
:100EA0008C91992780933A0990933B090091DA201D
:100EB000003011F00C946107AEECB0E28C918F5FC2
:100EC0008C930C94C507043011F00C948507809125
:100ED00038098093DA208091DA2081508093DA20DB
:100EE000AAEDB0E28C919927809338099093390943
:100EF0000091DA20003011F00C948307AEECB0E2E0
:100F00008C918F5F8C930C94C507053011F00C9475
:100F1000A70780913A098093DA20AAEDB0E28C917C
:100F20008F5F8C93AAEDB0E28C91992780933A0958
:100F300090933B090091DA200F3F11F00C94A50724
:100F4000AEECB0E28C918F5F8C930C94C5070630A9
:100F500011F00C94C50780913C098093DA208091B0
:100F6000DA2081508093DA20AAEDB0E28C919927A3
:100F700080933C0990933D090091DA20003011F0F4
:100F80000C94C50780E08093CE200C94D4080330E5
:100F900011F00C94D408A5EFB0E20C9101FB16F00F
:100FA0000C94D4087091F5207D7F7093F52000910A
:100FB000CE20003011F00C940C08809138098093F9
:100FC000DA20AAEDB0E28C918F5F8C93AAEDB0E2AB
:100FD0008C919927809338099093390980913A0927
:100FE0008093DA208091DA2081508093DA20AAED74
:100FF000B0E28C91992780933A0990933B09009134
:10100000DA20003011F00C940A08AEECB0E28C91BA
:101010008F5F8C930C94D408013011F00C942E083F
:1010200080913A098093DA20AAEDB0E28C918F5F2B
:101030008C93AAEDB0E28C91992780933A09909312
:101040003B090091DA200F3F11F00C942C08AEEC14
:10105000B0E28C918F5F8C930C94D408023011F025
:101060000C94500880913C098093DA20AAEDB0E2FC
:101070008C918F5F8C93AAEDB0E28C91992780932D
:101080003C0990933D090091DA200F3F11F00C9438
:101090004E08AEECB0E28C918F5F8C930C94D40828
:1010A000033011F00C94720880913A098093DA2091
:1010B0008091DA2081508093DA20AAEDB0E28C9101
:1010C000992780933A0990933B090091DA200030E8
:1010D00011F00C947008AEECB0E28C918F5F8C93A1
:1010E0000C94D408043011F00C94940880913809C1
:1010F0008093DA208091DA2081508093DA20AAED63
:10110000B0E28C9199278093380990933909009126
:10111000DA20003011F00C949208AEECB0E28C9121
:101120008F5F8C930C94D408053011F00C94B608A2
:1011300080913A098093DA20AAEDB0E28C918F5F1A
:101140008C93AAEDB0E28C91992780933A09909301
:101150003B090091DA200F3F11F00C94B408AEEC7B
:10116000B0E28C918F5F8C930C94D408063011F010
:101170000C94D40880913C098093DA208091DA2085
:1011800081508093DA20AAEDB0E28C919927809368
:101190003C0990933D090091DA20003011F00C9445
:1011A000D40880E08093CE207091D6217D7F70930B
:1011B000D621AFE2B1E20C9106FB16F00C94740A52
:1011C00080E080932D2181E08093332000913320B3
:1011D000083118F011F00C949509A3E3B0E2AD903A
:1011E000BB24ACEFB0E2AA0DBB1D4C91A3E3B0E26F
:1011F000AD90BB24A3E3B0E2AA0DBB1D0C91041774
:1012000081E008F480E08F93A3E3B0E2AD90BB24CB
:10121000A4E1B1E2AA0DBB1D4C91A3E3B0E2AD90F5
:10122000BB24A3E3B0E2AA0DBB1D0C91041781E01F
:1012300010F009F080E09F918923882311F40C9429
:101240006C09A3E3B0E2AD90BB24A4E1B1E2AA0D26
:10125000BB1D0C91A3E3B0E2AD90BB24ACEFB0E2B8
:10126000AA0DBB1D4C91041BAAEDB0E20C9304E641
:101270004091DA200E94A331AAEDB0E20C93A3E3DF
:10128000B0E2AD90BB24A3E3B0E2AA0DBB1D0C916C
:10129000A3E3B0E2AD90BB24ACEFB0E2AA0DBB1D5E
:1012A0004C91041BABEDB0E20C930091DB2040911C
:1012B000DA20049FABEDB0E20C9240912D21009119
:1012C000DB20041718F011F00C9468090C946C09D9
:1012D0008091DB2080932D21A3E3B0E2AD90BB246D
:1012E000A4E1B1E2AA0DBB1D4C91A3E3B0E2AD9025
:1012F000BB24A3E3B0E2AA0DBB1D0C91041718F0A8
:1013000011F00C9485090C948D097091D6217260AE
:101310007093D62184E680932D21A3E3B0E28C91D3
:101320008F5F8C9310F40C94E6080091F720003046
:1013300011F00C94CC0980E090E080933E099093EA
:101340003F0980E080932E21AFE2B1E20C9107FBD0
:1013500016F00C94C1094091FB2000912D21041737
:1013600018F011F00C94B6090C94BF09A7EFB0E285
:101370008C918F5F8C938091F9208093FA200C944C
:10138000CA09A7EFB0E28C918F5F8C938091F9200E
:101390008093FA200C94720A013011F00C94DB094E
:1013A0008FEF90E080933E0990933F0988E7809308
:1013B0002E210C94720A023011F00C94720AAFE2E2
:1013C000B1E20C9107FB81E00EF080E08F93009179
:1013D0002D21003081E009F080E09F91892388234E
:1013E00011F40C94F60980E08093F72008E740910F
:1013F000F820041BABEDB0E20C93ECEEF3E60E9498
:10140000F82FEBEDF0E2D080EE24FF2400270E94BD
:10141000C42E0E94162FAEEDB0E2DD92ED92FD9249
:101420000D93EDE2F1E2D080EE24FF2400270E942C
:10143000C42E0E94FB2EEEEDF0E20E94A02E0E9430
:101440006C2FDD2CEE2CFF2C002F0E94632EABEDB9
:10145000B0E2DC92E8EFF0E2D080EE24FF24002737
:101460000E94C42E0E94FB2E2F933F934F935F93B5
:10147000EBEDF0E2D080EE24FF2400270E94C42E82
:101480005F914F913F912F910E94A62FAEEDB0E258
:10149000DD92ED92FD920D93EEEDF0E20E94622E50
:1014A000AEE2B1E2DC92E0EFF3E60E94F82FEEED5F
:1014B000F0E20E94A02E0E946C2FAEEDB0E2DD9211
:1014C000ED92FD920D93EEEDF0E20E94622EAAEDF8
:1014D000B0E2DC92AAEDB0E28C91992780933E09AC
:1014E00090933F090C94E40A0091F720003011F02A
:1014F0000C94970A80E090E080933E0990933F0916
:1015000080E080932E210091FC20003018F011F033
:101510000C948C0A0C94950AA7EFB0E28C918F5F23
:101520008C938091F9208093FA200C94E40A013086
:1015300011F00C94A60A8FEF90E080933E099093EF
:101540003F0988E780932E210C94E40A023011F0C1
:101550000C94E40A0091FC20003011F00C94B50AC0
:1015600080E08093F7200C94E40A8091FC20809323
:101570002E21ECEFF0E2D080EE24FF2400270E9421
:10158000C42EAEEDB0E20E94F62EE0EFF3E60E942C
:10159000F82FEEEDF0E20E94A02E0E946C2FAEED2F
:1015A000B0E2DD92ED92FD920D93EEEDF0E20E943D
:1015B000622EAAEDB0E2DC92AAEDB0E28C919927FE
:1015C00080933E0990933F097091D6217D7F70935F
:1015D000D621AFE2B1E20C9104FB16F00C94460C5C
:1015E00080E08093662181E0809333200091332056
:1015F000083118F011F00C94A50BA3E3B0E2AD9004
:10160000BB24A5E3B1E2AA0DBB1D4C91A3E3B0E25C
:10161000AD90BB24A3E3B0E2AA0DBB1D0C9104174F
:1016200081E008F480E08F93A3E3B0E2AD90BB24A7
:10163000ADE4B1E2AA0DBB1D4C91A3E3B0E2AD90C5
:10164000BB24A3E3B0E2AA0DBB1D0C91041781E0FB
:1016500010F009F080E09F918923882311F40C9405
:101660007C0BA3E3B0E2AD90BB24ADE4B1E2AA0DE4
:10167000BB1D0C91A3E3B0E2AD90BB24A5E3B1E2A6
:10168000AA0DBB1D4C91041BAAEDB0E20C9304E61D
:101690004091DA200E94A331AAEDB0E20C93A3E3BB
:1016A000B0E2AD90BB24A3E3B0E2AA0DBB1D0C9148
:1016B000A3E3B0E2AD90BB24A5E3B1E2AA0DBB1D4C
:1016C0004C91041BABEDB0E20C930091DB204091F8
:1016D000DA20049FABEDB0E20C92409166210091BC
:1016E000DB20041718F011F00C94780B0C947C0B91
:1016F0008091DB2080936621A3E3B0E2AD90BB2410
:10170000ADE4B1E2AA0DBB1D4C91A3E3B0E2AD90F4
:10171000BB24A3E3B0E2AA0DBB1D0C91041718F083
:1017200011F00C94950B0C949D0B7091D621726066
:101730007093D62184E680936621A3E3B0E28C9176
:101740008F5F8C9310F40C94F60A009130210030D6
:1017500011F00C94D90B80E090E080933A0A9093BA
:101760003B0AAFE2B1E20C9105FB16F00C94CE0BF4
:101770004091342100916621041718F011F00C9467
:10178000C30B0C94CC0BA0E3B1E28C918F5F8C93D4
:1017900080913221809333210C94D70BA0E3B1E2E6
:1017A0008C918F5F8C9380913221809333210C94A4
:1017B000440C013011F00C94E50B8FEF90E0809316
:1017C0003A0A90933B0A0C94440C023011F00C94AA
:1017D000440CAFE2B1E20C9105FB81E00EF080E039
:1017E0008F9300916621003081E009F080E09F91A5
:1017F0008923882311F40C94000C80E0809330211D
:101800000FEF40913121041BABEDB0E20C93ECEEF5
:10181000F3E60E94F82FEBEDF0E2D080EE24FF24F7
:1018200000270E94C42E0E94162FAEEDB0E2DD927A
:10183000ED92FD920D93E6E6F1E2D080EE24FF24D6
:1018400000270E94C42E0E94FB2EEEEDF0E20E94C3
:10185000A02E0E946C2FDD2CEE2CFF2C002F0E945E
:10186000632EABEDB0E2DC920091DB2040913121A0
:10187000040FABEDB0E20C93ABEDB0E28C91992785
:1018800080933A0A90933B0A0C94890C0091302182
:10189000003011F00C94660C80E090E080933A0ADE
:1018A00090933B0A00913521003018F011F00C9410
:1018B0005B0C0C94640CA0E3B1E28C918F5F8C9371
:1018C00080913221809333210C94890C013011F0E6
:1018D0000C94720C8FEF90E080933A0A90933B0A3D
:1018E0000C94890C023011F00C94890C0091352174
:1018F000003011F00C94810C80E0809330210C9426
:10190000890CA5E3B1E28C91992780933A0A9093D0
:101910003B0AAFE2B1E20C9102FB16F00C94E60D2B
:1019200080E080939D2181E08093332000913320DB
:10193000083118F011F00C94450DA3E3B0E2AD901E
:10194000BB24ACE6B1E2AA0DBB1D4C91A3E3B0E20F
:10195000AD90BB24A3E3B0E2AA0DBB1D0C9104170C
:1019600081E008F480E08F93A3E3B0E2AD90BB2464
:10197000A4E8B1E2AA0DBB1D4C91A3E3B0E2AD9087
:10198000BB24A3E3B0E2AA0DBB1D0C91041781E0B8
:1019900010F009F080E09F918923882311F40C94C2
:1019A0001C0DA3E3B0E2AD90BB24A4E8B1E2AA0D04
:1019B000BB1D0C91A3E3B0E2AD90BB24ACE6B1E259
:1019C000AA0DBB1D4C91041BAAEDB0E20C9304E6DA
:1019D0004091DA200E94A331AAEDB0E20C93A3E378
:1019E000B0E2AD90BB24A3E3B0E2AA0DBB1D0C9105
:1019F000A3E3B0E2AD90BB24ACE6B1E2AA0DBB1DFF
:101A00004C91041BABEDB0E20C930091DB204091B4
:101A1000DA20049FABEDB0E20C9240919D21009141
:101A2000DB20041718F011F00C94180D0C941C0D09
:101A30008091DB2080939D21A3E3B0E2AD90BB2495
:101A4000A4E8B1E2AA0DBB1D4C91A3E3B0E2AD90B6
:101A5000BB24A3E3B0E2AA0DBB1D0C91041718F040
:101A600011F00C94350D0C943D0D7091D6217260DF
:101A70007093D62184E680939D21A3E3B0E28C91FC
:101A80008F5F8C9310F40C94960C009167210030BA
:101A900011F00C94790D80E090E080933C0A9093D3
:101AA0003D0AAFE2B1E20C9103FB16F00C946E0D0F
:101AB00040916B2100919D21041718F011F00C94B6
:101AC000630D0C946C0DA7E6B1E28C918F5F8C9343
:101AD0008091692180936A210C94770DA7E6B1E289
:101AE0008C918F5F8C938091692180936A210C94F3
:101AF000E40D013011F00C94850D8FEF90E0809390
:101B00003C0A90933D0A0C94E40D023011F00C94C1
:101B1000E40DAFE2B1E20C9103FB81E00EF080E056
:101B20008F9300919D21003081E009F080E09F912A
:101B30008923882311F40C94A00D80E08093672101
:101B40000FEF40916821041BABEDB0E20C93ECEE7B
:101B5000F3E60E94F82FEBEDF0E2D080EE24FF24B4
:101B600000270E94C42E0E94162FAEEDB0E2DD9237
:101B7000ED92FD920D93EDE9F1E2D080EE24FF2489
:101B800000270E94C42E0E94FB2EEEEDF0E20E9480
:101B9000A02E0E946C2FDD2CEE2CFF2C002F0E941B
:101BA000632EABEDB0E2DC920091DB204091682126
:101BB000040FABEDB0E20C93ABEDB0E28C91992742
:101BC00080933C0A90933D0A0C94290E0091672162
:101BD000003011F00C94060E80E090E080933C0AF7
:101BE00090933D0A00916C21003018F011F00C9494
:101BF000FB0D0C94040EA7E6B1E28C918F5F8C93E1
:101C00008091692180936A210C94290E013011F092
:101C10000C94120E8FEF90E080933C0A90933D0A53
:101C20000C94290E023011F00C94290E00916C21B5
:101C3000003011F00C94210E80E0809367210C9409
:101C4000290EACE6B1E28C91992780933C0A9093DF
:101C50003D0AAFE2B1E20C9100FB16F00C94860F46
:101C600080E08093D42181E0809333200091332061
:101C7000083118F011F00C94E50EA3E3B0E2AD903A
:101C8000BB24A3EAB1E2AA0DBB1D4C91A3E3B0E2D1
:101C9000AD90BB24A3E3B0E2AA0DBB1D0C910417C9
:101CA00081E008F480E08F93A3E3B0E2AD90BB2421
:101CB000ABEBB1E2AA0DBB1D4C91A3E3B0E2AD903A
:101CC000BB24A3E3B0E2AA0DBB1D0C91041781E075
:101CD00010F009F080E09F918923882311F40C947F
:101CE000BC0EA3E3B0E2AD90BB24ABEBB1E2AA0D16
:101CF000BB1D0C91A3E3B0E2AD90BB24A3EAB1E21B
:101D0000AA0DBB1D4C91041BAAEDB0E20C9304E696
:101D10004091DA200E94A331AAEDB0E20C93A3E334
:101D2000B0E2AD90BB24A3E3B0E2AA0DBB1D0C91C1
:101D3000A3E3B0E2AD90BB24A3EAB1E2AA0DBB1DC0
:101D40004C91041BABEDB0E20C930091DB20409171
:101D5000DA20049FABEDB0E20C924091D4210091C7
:101D6000DB20041718F011F00C94B80E0C94BC0E84
:101D70008091DB208093D421A3E3B0E2AD90BB241B
:101D8000ABEBB1E2AA0DBB1D4C91A3E3B0E2AD9069
:101D9000BB24A3E3B0E2AA0DBB1D0C91041718F0FD
:101DA00011F00C94D50E0C94DD0E7091D62172605A
:101DB0007093D62184E68093D421A3E3B0E28C9182
:101DC0008F5F8C9310F40C94360E00919E2100309E
:101DD00011F00C94190F80E090E080933E0A9093EC
:101DE0003F0AAFE2B1E20C9101FB16F00C940E0F2A
:101DF0004091A2210091D421041718F011F00C9405
:101E0000030F0C940C0FAEE9B1E28C918F5F8C93B1
:101E10008091A0218093A1210C94170FAEE9B1E22B
:101E20008C918F5F8C938091A0218093A1210C9441
:101E3000840F013011F00C94250F8FEF90E0809308
:101E40003E0A90933F0A0C94840F023011F00C94D8
:101E5000840FAFE2B1E20C9101FB81E00EF080E073
:101E60008F930091D421003081E009F080E09F91B0
:101E70008923882311F40C94400F80E080939E21E5
:101E80000FEF40919F21041BABEDB0E20C93ECEE01
:101E9000F3E60E94F82FEBEDF0E2D080EE24FF2471
:101EA00000270E94C42E0E94162FAEEDB0E2DD92F4
:101EB000ED92FD920D93E4EDF1E2D080EE24FF244B
:101EC00000270E94C42E0E94FB2EEEEDF0E20E943D
:101ED000A02E0E946C2FDD2CEE2CFF2C002F0E94D8
:101EE000632EABEDB0E2DC920091DB2040919F21AC
:101EF000040FABEDB0E20C93ABEDB0E28C919927FF
:101F000080933E0A90933F0A0C94C90F00919E2142
:101F1000003011F00C94A60F80E090E080933E0A10
:101F200090933F0A0091A321003018F011F00C9417
:101F30009B0F0C94A40FAEE9B1E28C918F5F8C9350
:101F40008091A0218093A1210C94C90F013011F040
:101F50000C94B20F8FEF90E080933E0A90933F0A6B
:101F60000C94C90F023011F00C94C90F0091A321F9
:101F7000003011F00C94C10F80E080939E210C94EE
:101F8000C90FA3EAB1E28C91992780933E0A9093FE
:101F90003F0AA5E5B2E20E94B331EA2FFB2F339747
:101FA0000FEFAEEEB0E20E949B31AEEEB0E2E2E0A7
:101FB000F4E60E94B93111F00C94731DE5E5F2E2EC
:101FC00093E204E033E3A3E5B3E20E94CF31AAED4C
:101FD000B0E22C9380E080935422A5E5B2E28827FA
:101FE0008C938091DA2081508093DA20A8E5B3E2C7
:101FF0000E944531402F512F622F732FAAEDB0E27E
:102000000C911127222733270E94E13011F00C9404
:10201000731DA3E5B3E2E6E0F4E60E94B93111F0E6
:102020000C94171080E0809328200C94731DECE032
:10203000F4E60E94B93111F00C949414ADE5B3E2CA
:102040000E944531A8E2B0E20C93E2E1F4E681E0BF
:102050008A930E94C22CA0E2BEE2E8EDF1E20E9467
:10206000F43081E08A930E94B92CECE1F4E681E03F
:102070008A930E94C22CA5EDB1E20C9100FB16F0F0
:102080000C945410A0E2BEE2E7EFF1E20E94F430BB
:1020900081E08A930E94B92CECE1F4E681E08A9316
:1020A0000E94C22C0C945A10EEE1F4E681E08A936F
:1020B0000E94C22C81E080933320009133200831AC
:1020C00018F011F00C948210A0E2BEE2E3E3F0E21B
:1020D000A190BB24ECEFF0E2EA0DFB1D0E9403315E
:1020E00081E08A930E94B92CECE1F4E681E08A93C6
:1020F0000E94C22CA3E3B0E28C918F5F8C9310F40A
:102100000C945D1081E080933320009133200831DE
:1021100018F011F00C94AA10A0E2BEE2E3E3F0E2A2
:10212000A190BB24E4E1F1E2EA0DFB1D0E94033122
:1021300081E08A930E94B92CECE1F4E681E08A9375
:102140000E94C22CA3E3B0E28C918F5F8C9310F4B9
:102150000C94851081E08093332000913320083166
:1021600018F011F00C94D210A0E2BEE2E3E3F0E22A
:10217000A190BB24E5E3F1E2EA0DFB1D0E940331CF
:1021800081E08A930E94B92CECE1F4E681E08A9325
:102190000E94C22CA3E3B0E28C918F5F8C9310F469
:1021A0000C94AD1081E080933320009133200831EE
:1021B00018F011F00C94FA10A0E2BEE2E3E3F0E2B2
:1021C000A190BB24EDE4F1E2EA0DFB1D0E94033176
:1021D00081E08A930E94B92CECE1F4E681E08A93D5
:1021E0000E94C22CA3E3B0E28C918F5F8C9310F419
:1021F0000C94D51081E08093332000913320083176
:1022000018F011F00C942211A0E2BEE2E3E3F0E238
:10221000A190BB24ECE6F1E2EA0DFB1D0E94033124
:1022200081E08A930E94B92CECE1F4E681E08A9384
:102230000E94C22CA3E3B0E28C918F5F8C9310F4C8
:102240000C94FD1081E080933320009133200831FD
:1022500018F011F00C944A11A0E2BEE2E3E3F0E2C0
:10226000A190BB24E4E8F1E2EA0DFB1D0E940331DA
:1022700081E08A930E94B92CECE1F4E681E08A9334
:102280000E94C22CA3E3B0E28C918F5F8C9310F478
:102290000C94251181E08093332000913320083184
:1022A00018F011F00C947211A0E2BEE2E3E3F0E248
:1022B000A190BB24E3EAF1E2EA0DFB1D0E94033189
:1022C00081E08A930E94B92CECE1F4E681E08A93E4
:1022D0000E94C22CA3E3B0E28C918F5F8C9310F428
:1022E0000C944D1181E0809333200091332008310C
:1022F00018F011F00C949A11A0E2BEE2E3E3F0E2D0
:10230000A190BB24EBEBF1E2EA0DFB1D0E9403312F
:1023100081E08A930E94B92CECE1F4E681E08A9393
:102320000E94C22CA3E3B0E28C918F5F8C9310F4D7
:102330000C947511A0E2BEE2ECEFF0E20E940331D2
:1023400081E08A930E94B92CECE1F4E681E08A9363
:102350000E94C22CA0E2BEE2E9EFF0E20E9403314B
:1023600081E08A930E94B92CECE1F4E681E08A9343
:102370000E94C22CA0E2BEE2E8EFF0E20E9403312C
:1023800081E08A930E94B92CECE1F4E681E08A9323
:102390000E94C22CAFE2B1E28C9186FBA0E2BEE2C9
:1023A0000E9420308D9388278C9381E08A930E942D
:1023B000B92CECE1F4E681E08A930E94C22CAFE2F2
:1023C000B1E28C9187FBA0E2BEE20E9420308D93A7
:1023D00088278C9381E08A930E94B92CECE1F4E683
:1023E00081E08A930E94C22CA0E2BEE2E5E3F1E222
:1023F0000E94033181E08A930E94B92CECE1F4E65B
:1024000081E08A930E94C22CA0E2BEE2E2E3F1E204
:102410000E94033181E08A930E94B92CECE1F4E63A
:1024200081E08A930E94C22CA0E2BEE2E1E3F1E2E5
:102430000E94033181E08A930E94B92CECE1F4E61A
:1024400081E08A930E94C22CAFE2B1E28C9184FBBE
:10245000A0E2BEE20E9420308D9388278C9381E019
:102460008A930E94B92CECE1F4E681E08A930E9401
:10247000C22CAFE2B1E28C9185FBA0E2BEE20E94E9
:1024800020308D9388278C9381E08A930E94B92C09
:10249000ECE1F4E681E08A930E94C22CA0E2BEE265
:1024A000ECE6F1E20E94033181E08A930E94B92CAC
:1024B000ECE1F4E681E08A930E94C22CA0E2BEE245
:1024C000E9E6F1E20E94033181E08A930E94B92C8F
:1024D000ECE1F4E681E08A930E94C22CA0E2BEE225
:1024E000E8E6F1E20E94033181E08A930E94B92C70
:1024F000ECE1F4E681E08A930E94C22CAFE2B1E203
:102500008C9182FBA0E2BEE20E9420308D9388274E
:102510008C9381E08A930E94B92CECE1F4E681E08F
:102520008A930E94C22CAFE2B1E28C9183FBA0E2BD
:10253000BEE20E9420308D9388278C9381E08A939D
:102540000E94B92CECE1F4E681E08A930E94C22C4F
:10255000A0E2BEE2E3EAF1E20E94033181E08A9365
:102560000E94B92CECE1F4E681E08A930E94C22C2F
:10257000A0E2BEE2E0EAF1E20E94033181E08A9348
:102580000E94B92CECE1F4E681E08A930E94C22C0F
:10259000A0E2BEE2EFE9F1E20E94033181E08A931A
:1025A0000E94B92CECE1F4E681E08A930E94C22CEF
:1025B000AFE2B1E28C9180FBA0E2BEE20E9420304B
:1025C0008D9388278C9381E08A930E94B92CECE14B
:1025D000F4E681E08A930E94C22CAFE2B1E28C91D2
:1025E00081FBA0E2BEE20E9420308D9388278C936D
:1025F00081E08A930E94B92CECE1F4E681E08A93B1
:102600000E94C22C0091D5214CE10423AAEDB0E236
:102610000C930091DA20003011F00C941713EEE1C6
:10262000F4E681E08A930E94C22C0C941D13E2E22E
:10263000F4E681E08A930E94C22C81E080933320EB
:1026400000913320083118F011F00C944513A3E3E6
:10265000B0E20D91112745E050E00E94032EA7E45F
:10266000B0E2A00FB11F81E08A930E94BB2CECE185
:10267000F4E681E08A930E94C22CA3E3B0E28C913D
:102680008F5F8C9310F40C942013A5EDB1E28C9124
:1026900081FBA0E2BEE20E9420308D9388278C93BC
:1026A00081E08A930E94B92CECE1F4E681E08A9300
:1026B0000E94C22C81E080933320009133200830A7
:1026C00018F011F00C948213A0E2BEE2E3E3F0E212
:1026D000A190BB24E3ECF0E2EA0DFB1D0E94033164
:1026E00081E08A930E94B92CECE1F4E681E08A93C0
:1026F0000E94C22CA3E3B0E28C918F5F8C9310F404
:102700000C945D1381E080933320009133200330DB
:1027100018F011F00C94AA13A0E2BEE2E3E3F0E299
:10272000A190BB24E4EDF0E2EA0DFB1D0E94033111
:1027300081E08A930E94B92CECE1F4E681E08A936F
:102740000E94C22CA3E3B0E28C918F5F8C9310F4B3
:102750000C9485138091380A8093DA20A0E2BEE2BF
:10276000EAEDF0E20E94033181E08A930E94B92CE5
:10277000ECE1F4E681E08A930E94C22CA0E2BEE282
:10278000E2EDF0E20E94033181E08A930E94B92CCD
:10279000ECE1F4E681E08A930E94C22CA0E2BEE262
:1027A000E8EDF0E20E94033181E08A930E94B92CA7
:1027B000ECE1F4E681E08A930E94C22CA0E2BEE242
:1027C000EDECF0E20E94033181E08A930E94B92C83
:1027D000ECE1F4E681E08A930E94C22C81E08093D0
:1027E000332000913320033018F011F00C941614AC
:1027F000A0E2BEE2E3E3F0E2A190BB24EEECF0E263
:10280000EA0DFB1D0E94033181E08A930E94B92CDE
:10281000ECE1F4E681E08A930E94C22CA3E3B0E2EB
:102820008C918F5F8C9310F40C94F11381E0809362
:102830003320009133200F3318F011F00C943E1424
:10284000A0E2BEE2E3E3F0E2A190BB24E3E1F2E226
:10285000EA0DFB1D0E94743181E08A930E94B92C1D
:10286000ECE1F4E681E08A930E94C22CA3E3B0E29B
:102870008C918F5F8C9310F40C941914A0E2BEE23B
:10288000E3E5F2E20E94743181E08A930E94B92C60
:10289000E6E2F4E681E08A930E94C22CA0E2BEE266
:1028A000EBEFF0E20E94033181E08A930E94B92CA1
:1028B000ECE1F4E681E08A930E94C22CA0E2BEE241
:1028C000E4E3F1E20E94033181E08A930E94B92C93
:1028D000ECE1F4E681E08A930E94C22CA0E2BEE221
:1028E000EBE6F1E20E94033181E08A930E94B92C69
:1028F000ECE1F4E681E08A930E94C22CA0E2BEE201
:10290000E2EAF1E20E94033181E08A930E94B92C4D
:10291000ECE1F4E681E08A930E94C22C81E08A9384
:102920000E94CA2C0C94731DEEE2F4E60E94B931A9
:1029300011F00C94AF14ADE5B3E2E4E3F4E60E94C9
:10294000B93111F00C94AD1478ED74BF71E070934F
:102950007900E1E0F0E00E944C2B0C94731DEAE357
:10296000F4E60E94B93111F00C9405157091CC2059
:102970007F7E7093CC2083E08093332000913320BE
:102980000A3018F011F00C94EB14009133204EE053
:10299000040FABEDB0E20C93A3E3B0E20D9111276D
:1029A00045E050E00E94032EAEE4B3E2A00FB11F59
:1029B0000E944531ABEDB0E2AD90BB24A3E3B0E2A1
:1029C000AA0DBB1D0C93A3E3B0E28C918F5F8C9397
:1029D00010F40C94BE14E4E9F3E2AFEFB1E20E940C
:1029E0009031E9E9F3E2A4E0B2E20E949031EEE92D
:1029F000F3E2A8E0B2E20E949031E3EAF3E2ACE055
:102A0000B2E20E9490310C94731DE0E4F4E60E945F
:102A1000B93111F00C94C015ADE5B3E20E94453117
:102A2000A8EDB1E20D931C93E7E5F1E0AAEDB0E269
:102A30000E942F2DAAEDB0E24D915527A8EDB1E2ED
:102A40000D911C910417150711F40C942D15E7E551
:102A5000F1E0A8EDB1E20E940F2DA2E6B3E20E94E0
:102A60004531ACEDB0E20D931C93ACEDB0E20D91AD
:102A70001C91003050E0150711F00C944615709130
:102A8000D5217E7F7093D5210C946C157091D52142
:102A900071607093D521ACEDB0E28D919C91A7EF60
:102AA000B1E28D939C93EEE5F1E0ACEDB0E20E94D3
:102AB000312DACEDB0E24D915C91A7EFB1E20D91FB
:102AC0001C910417150711F40C946C15EEE5F1E058
:102AD000A7EFB1E20E940F2DA7E6B3E2E4E4F4E62B
:102AE0000E94B93111F00C947C157091D5217D7F35
:102AF0007093D5210C9481157091D52172607093DB
:102B0000D521ACE6B3E2E4E4F4E60E94B93111F079
:102B10000C949B157091D5217B7F7093D52170917A
:102B2000D521777F7093D5217091D5217F7E7093C9
:102B3000D5210C94AA157091D52174607093D5217C
:102B40007091D52178607093D5217091D5217061F5
:102B50007093D521EDE5F1E0AAEDB0E20E942F2DB2
:102B60004091DA200091D521041711F40C94BE1580
:102B7000EDE5F1E0A5EDB1E20E940D2D0C94731D81
:102B8000E6E4F4E60E94B93111F00C94711681E08C
:102B90008093332000913320083118F011F00C9409
:102BA0006F160091332042E0040FABEDB0E20C93BE
:102BB000ABEDB0E20D91112745E050E00E94032EED
:102BC000AEE4B3E2A00FB11F0E944531A3E3B0E22F
:102BD000AD90BB24ACEFB0E2AA0DBB1D0C93E3E3B8
:102BE000F0E2A190BB24EFE0F0E0EA0DFB1DAAEDBE
:102BF000B0E20E942F2D4091DA20A3E3B0E2AD9025
:102C0000BB24ACEFB0E2AA0DBB1D0C91041711F46C
:102C10000C941C16E3E3F0E2A190BB24EFE0F0E09B
:102C2000EA0DFB1DA3E3B0E2AD90BB24ACEFB0E234
:102C3000AA0DBB1D0E940D2D009133204AE1040F07
:102C4000ABEDB0E20C93ABEDB0E20D91112745E096
:102C500050E00E94032EAEE4B3E2A00FB11F0E9429
:102C60004531A3E3B0E2AD90BB24A4E1B1E2AA0DEB
:102C7000BB1D0C93E3E3F0E2A190BB24E7E2F0E09C
:102C8000EA0DFB1DAAEDB0E20E942F2D4091DA2043
:102C9000A3E3B0E2AD90BB24A4E1B1E2AA0DBB1D59
:102CA0000C91041711F40C946716E3E3F0E2A19081
:102CB000BB24E7E2F0E0EA0DFB1DA3E3B0E2AD9038
:102CC000BB24A4E1B1E2AA0DBB1D0E940D2DA3E31C
:102CD000B0E28C918F5F8C9310F40C94CA150C9415
:102CE000731DECE4F4E60E94B93111F00C94221744
:102CF00081E08093332000913320083118F011F0E7
:102D00000C9420170091332042E0040FABEDB0E2A9
:102D10000C93ABEDB0E20D91112745E050E00E941D
:102D2000032EAEE4B3E2A00FB11F0E944531A3E32E
:102D3000B0E2AD90BB24A5E3B1E2AA0DBB1D0C939C
:102D4000E3E3F0E2A190BB24E3E4F0E0EA0DFB1D35
:102D5000AAEDB0E20E942F2D4091DA20A3E3B0E269
:102D6000AD90BB24A5E3B1E2AA0DBB1D0C910417E5
:102D700011F40C94CD16E3E3F0E2A190BB24E3E45C
:102D8000F0E0EA0DFB1DA3E3B0E2AD90BB24A5E3A8
:102D9000B1E2AA0DBB1D0E940D2D009133204AE126
:102DA000040FABEDB0E20C93ABEDB0E20D91112747
:102DB00045E050E00E94032EAEE4B3E2A00FB11F45
:102DC0000E944531A3E3B0E2AD90BB24ADE4B1E293
:102DD000AA0DBB1D0C93E3E3F0E2A190BB24EBE54D
:102DE000F0E0EA0DFB1DAAEDB0E20E942F2D40910C
:102DF000DA20A3E3B0E2AD90BB24ADE4B1E2AA0DCA
:102E0000BB1D0C91041711F40C941817E3E3F0E2C6
:102E1000A190BB24EBE5F0E0EA0DFB1DA3E3B0E2DB
:102E2000AD90BB24ADE4B1E2AA0DBB1D0E940D2DF7
:102E3000A3E3B0E28C918F5F8C9310F40C947B161B
:102E40000C94731DE2E5F4E60E94B93111F00C9484
:102E5000D31781E08093332000913320083118F09C
:102E600011F00C94D1170091332042E0040FABED28
:102E7000B0E20C93ABEDB0E20D91112745E050E0CC
:102E80000E94032EAEE4B3E2A00FB11F0E944531B1
:102E9000A3E3B0E2AD90BB24ACE6B1E2AA0DBB1D4A
:102EA0000C93E3E3F0E2A190BB24E7E7F0E0EA0D46
:102EB000FB1DAAEDB0E20E942F2D4091DA20A3E382
:102EC000B0E2AD90BB24ACE6B1E2AA0DBB1D0C9103
:102ED000041711F40C947E17E3E3F0E2A190BB24F5
:102EE000E7E7F0E0EA0DFB1DA3E3B0E2AD90BB2401
:102EF000ACE6B1E2AA0DBB1D0E940D2D009133205E
:102F00004AE1040FABEDB0E20C93ABEDB0E20D91F2
:102F1000112745E050E00E94032EAEE4B3E2A00F7B
:102F2000B11F0E944531A3E3B0E2AD90BB24A4E8F9
:102F3000B1E2AA0DBB1D0C93E3E3F0E2A190BB2428
:102F4000EFE8F0E0EA0DFB1DAAEDB0E20E942F2DA4
:102F50004091DA20A3E3B0E2AD90BB24A4E8B1E253
:102F6000AA0DBB1D0C91041711F40C94C917E3E3CF
:102F7000F0E2A190BB24EFE8F0E0EA0DFB1DA3E333
:102F8000B0E2AD90BB24A4E8B1E2AA0DBB1D0E9443
:102F90000D2DA3E3B0E28C918F5F8C9310F40C9411
:102FA0002C170C94731DE8E5F4E60E94B93111F07A
:102FB0000C94841881E080933320009133200831F1
:102FC00018F011F00C9482180091332042E0040FA5
:102FD000ABEDB0E20C93ABEDB0E20D91112745E003
:102FE00050E00E94032EAEE4B3E2A00FB11F0E9496
:102FF0004531A3E3B0E2AD90BB24A3EAB1E2AA0D50
:10300000BB1D0C93E3E3F0E2A190BB24EBEAF0E0FC
:10301000EA0DFB1DAAEDB0E20E942F2D4091DA20AF
:10302000A3E3B0E2AD90BB24A3EAB1E2AA0DBB1DBD
:103030000C91041711F40C942F18E3E3F0E2A19023
:10304000BB24EBEAF0E0EA0DFB1DA3E3B0E2AD9098
:10305000BB24A3EAB1E2AA0DBB1D0E940D2D009175
:1030600033204AE1040FABEDB0E20C93ABEDB0E2DC
:103070000D91112745E050E00E94032EAEE4B3E22B
:10308000A00FB11F0E944531A3E3B0E2AD90BB2475
:10309000ABEBB1E2AA0DBB1D0C93E3E3F0E2A19010
:1030A000BB24E3ECF0E0EA0DFB1DAAEDB0E20E94C8
:1030B0002F2D4091DA20A3E3B0E2AD90BB24ABEB1F
:1030C000B1E2AA0DBB1D0C91041711F40C947A18EF
:1030D000E3E3F0E2A190BB24E3ECF0E0EA0DFB1D9A
:1030E000A3E3B0E2AD90BB24ABEBB1E2AA0DBB1DF4
:1030F0000E940D2DA3E3B0E28C918F5F8C9310F4AE
:103100000C94DD170C94731DEEE5F4E60E94B931C2
:1031100011F00C943719ADE5B3E20E944531ACEFE4
:10312000B0E20C93EFE0F0E0AAEDB0E20E942F2DA8
:103130004091DA200091FC20041711F40C94A61899
:10314000EFE0F0E0ACEFB0E20E940D2DA2E6B3E2BA
:103150000E944531A9EFB0E20C93EDE0F0E0AAED5A
:10316000B0E20E942F2D4091DA200091F92004173F
:1031700011F40C94C118EDE0F0E0A9EFB0E20E9468
:103180000D2DA7E6B3E20E944531A8EFB0E20C9303
:10319000ECE0F0E0AAEDB0E20E942F2D4091DA20A1
:1031A0000091F820041711F40C94DC18ECE0F0E026
:1031B000A8EFB0E20E940D2DACE6B3E2E4E4F4E641
:1031C0000E94B93111F00C94EC1870912F217F7B83
:1031D00070932F210C94F11870912F2170647093CB
:1031E0002F21A1E7B3E2E4E4F4E60E94B93111F043
:1031F0000C94011970912F217F7770932F210C94DB
:10320000061970912F21706870932F21ECEDF0E07A
:10321000AAEDB0E20E942F2D4091DA2000912F21DB
:10322000041711F40C941A19ECEDF0E0AFE2B1E2DE
:103230000E940D2DA6E7B3E20E944531ABEFB0E24C
:103240000C93EEE0F0E0AAEDB0E20E942F2D409149
:10325000DA200091FB20041711F40C943519EEE0EC
:10326000F0E0ABEFB0E20E940D2D0C94731DE4E68C
:10327000F4E60E94B93111F00C94EA19ADE5B3E21D
:103280000E944531A5E3B1E20C93E3E4F0E0AAED3E
:10329000B0E20E942F2D4091DA20009135210417D1
:1032A00011F40C945919E3E4F0E0A5E3B1E20E94B3
:1032B0000D2DA2E6B3E20E944531A2E3B1E20C93E8
:1032C000E1E4F0E0AAEDB0E20E942F2D4091DA2077
:1032D00000913221041711F40C947419E1E4F0E028
:1032E000A2E3B1E20E940D2DA7E6B3E20E944531B0
:1032F000A1E3B1E20C93E0E4F0E0AAEDB0E20E94B9
:103300002F2D4091DA2000913121041711F40C94F3
:103310008F19E0E4F0E0A1E3B1E20E940D2DACE6EC
:10332000B3E2E4E4F4E60E94B93111F00C949F1981
:1033300070912F217F7E70932F210C94A41970918E
:103340002F21706170932F21A1E7B3E2E4E4F4E64A
:103350000E94B93111F00C94B41970912F217F7D26
:1033600070932F210C94B91970912F217062709372
:103370002F21ECEDF0E0AAEDB0E20E942F2D40915C
:10338000DA2000912F21041711F40C94CD19ECEDE3
:10339000F0E0AFE2B1E20E940D2DA6E7B3E20E9499
:1033A0004531A4E3B1E20C93E2E4F0E0AAEDB0E22F
:1033B0000E942F2D4091DA2000913421041711F43E
:1033C0000C94E819E2E4F0E0A4E3B1E20E940D2DD0
:1033D0000C94731DEAE6F4E60E94B93111F00C94E6
:1033E0009D1AADE5B3E20E944531ACE6B1E20C9323
:1033F000E7E7F0E0AAEDB0E20E942F2D4091DA203D
:1034000000916C21041711F40C940C1AE7E7F0E01A
:10341000ACE6B1E20E940D2DA2E6B3E20E94453176
:10342000A9E6B1E20C93E5E7F0E0AAEDB0E20E9474
:103430002F2D4091DA2000916921041711F40C948A
:10344000271AE5E7F0E0A9E6B1E20E940D2DA7E614
:10345000B3E20E944531A8E6B1E20C93E4E7F0E064
:10346000AAEDB0E20E942F2D4091DA200091682150
:10347000041711F40C94421AE4E7F0E0A8E6B1E274
:103480000E940D2DACE6B3E2E4E4F4E60E94B9310B
:1034900011F00C94521A70912F217B7F70932F2181
:1034A0000C94571A70912F21746070932F21A1E70B
:1034B000B3E2E4E4F4E60E94B93111F00C94671A27
:1034C00070912F21777F70932F210C946C1A70913B
:1034D0002F21786070932F21ECEDF0E0AAEDB0E29F
:1034E0000E942F2D4091DA2000912F21041711F412
:1034F0000C94801AECEDF0E0AFE2B1E20E940D2DE9
:10350000A6E7B3E20E944531ABE6B1E20C93E6E7F1
:10351000F0E0AAEDB0E20E942F2D4091DA20009158
:103520006B21041711F40C949B1AE6E7F0E0ABE66C
:10353000B1E20E940D2D0C94731DE0E7F4E60E94A9
:10354000B93111F00C94501BADE5B3E20E94453146
:10355000A3EAB1E20C93EBEAF0E0AAEDB0E20E943C
:103560002F2D4091DA200091A321041711F40C941F
:10357000BF1AEBEAF0E0A3EAB1E20E940D2DA2E649
:10358000B3E20E944531A0EAB1E20C93E9EAF0E02F
:10359000AAEDB0E20E942F2D4091DA200091A021E7
:1035A000041711F40C94DA1AE9EAF0E0A0EAB1E2A7
:1035B0000E940D2DA7E6B3E20E944531AFE9B1E2CA
:1035C0000C93E8EAF0E0AAEDB0E20E942F2D4091C2
:1035D000DA2000919F21041711F40C94F51AE8EAFF
:1035E000F0E0AFE9B1E20E940D2DACE6B3E2E4E415
:1035F000F4E60E94B93111F00C94051B70912F2153
:103600007E7F70932F210C940A1B70912F21716083
:1036100070932F21A1E7B3E2E4E4F4E60E94B9310C
:1036200011F00C941A1B70912F217D7F70932F2124
:103630000C941F1B70912F21726070932F21ECED61
:10364000F0E0AAEDB0E20E942F2D4091DA20009127
:103650002F21041711F40C94331BECEDF0E0AFE2D2
:10366000B1E20E940D2DA6E7B3E20E944531A2EA25
:10367000B1E20C93EAEAF0E0AAEDB0E20E942F2D4D
:103680004091DA200091A221041711F40C944E1BF2
:10369000EAEAF0E0A2EAB1E20E940D2D0C94731D5B
:1036A000E6E7F4E60E94B93111F00C94281C81E0A1
:1036B0008093332000913320083118F011F00C94DE
:1036C000C91B0091332042E0040FABEDB0E20C9334
:1036D000EBEDF0E20191112745E050E00E94032E4E
:1036E000EEE4F3E2E00FF11FA3E3B0E20D91112746
:1036F00045E050E00E94032EA7E4B0E2A00FB11F06
:103700000E949031E3E3F0E20191112745E050E09F
:103710000E94032EEAEDF0E0E00FF11FAEEEB0E202
:1037200094E00E943A2DEEEEF0E2A3E3B0E20D91B8
:10373000112745E050E00E94032EA7E4B0E2A00F5D
:10374000B11F0E94BB3111F40C94C11BE3E3F0E202
:103750000191112745E050E00E94032EEAEDF0E0D0
:10376000E00FF11FA3E3B0E20D91112745E050E017
:103770000E94032EA7E4B0E2A00FB11F7BE70E94D6
:10378000282DA3E3B0E28C918F5F8C9310F40C94FE
:103790005A1B81E08093332000913320033018F0CE
:1037A00011F00C94261C009133204AE1040FABED7C
:1037B000B0E20C93ABEDB0E20D91112745E050E083
:1037C0000E94032EAEE4B3E2A00FB11F0E94453168
:1037D000A3E3B0E2AD90BB24A4EDB0E2AA0DBB1D03
:1037E0000C93E3E3F0E2A190BB24E7E0F0E0EA0D04
:1037F000FB1DAAEDB0E20E942F2D4091DA20A3E339
:10380000B0E2AD90BB24A4EDB0E2AA0DBB1D0C91BB
:10381000041711F40C941E1CE3E3F0E2A190BB2406
:10382000E7E0F0E0EA0DFB1DA3E3B0E2AD90BB24BE
:10383000A4EDB0E2AA0DBB1D0E940D2DA3E3B0E2E2
:103840008C918F5F8C9310F40C94CC1B0C94731D93
:10385000ECE7F4E60E94B93111F00C948E1C81E083
:103860008093332000913320083018F011F00C942D
:103870008C1C0091332042E0040FABEDB0E20C93BE
:10388000ABEDB0E20D91112745E050E00E94032E10
:10389000AEE4B3E2A00FB11F0E944531A3E3B0E252
:1038A000AD90BB24A3ECB0E2AA0DBB1D0C93E3E3E7
:1038B000F0E2A190BB24EFEFFFEFEA0DFB1DAAEDB4
:1038C000B0E20E942F2D4091DA20A3E3B0E2AD9048
:1038D000BB24A3ECB0E2AA0DBB1D0C91041711F49C
:1038E0000C94841CE3E3F0E2A190BB24EFEFFFEF24
:1038F000EA0DFB1DA3E3B0E2AD90BB24A3ECB0E264
:10390000AA0DBB1D0E940D2DA3E3B0E28C918F5F29
:103910008C9310F40C94321C0C94731DE2E8F4E6C2
:103920000E94B93111F00C94F21CADE5B3E20E9493
:103930004531ABEDB0E20C93ABEDB0E28C91992741
:103940008093380A9093390AEEEDF0E0AAEDB0E2E8
:103950000E942F2D4091DA200091DB20041711F4F2
:103960000C94B81CEEEDF0E0ABEDB0E20E940D2D32
:10397000A2E6B3E20E944531A2EDB0E20C93EDED78
:10398000F0E0AAEDB0E20E942F2D4091DA200091E4
:10399000D220041711F40C94D31CEDEDF0E0A2ED4D
:1039A000B0E20E940D2D0E941629A7E6B3E20E9404
:1039B0004531A8EDB0E20C93EBE0F0E0AAEDB0E207
:1039C0000E942F2D4091DA200091D820041711F485
:1039D0000C94F01CEBE0F0E0A8EDB0E20E940D2D9D
:1039E0000C94731DE8E8F4E60E94B93111F00C94D0
:1039F000731DADE5B3E20E944531ADECB0E20C932E
:103A0000E9E5F1E0AAEDB0E20E942F2D4091DA2025
:103A10000091CD20041711F40C94141DE9E5F1E098
:103A2000ADECB0E20E940D2D81E080933320009137
:103A30003320033018F011F00C94711D00913320E5
:103A400043E0040FABEDB0E20C93ABEDB0E20D91AF
:103A5000112745E050E00E94032EAEE4B3E2A00F30
:103A6000B11F0E944531A3E3B0E2AD90BB24AEECA0
:103A7000B0E2AA0DBB1D0C93E3E3F0E2A190BB24DE
:103A8000E9E5F1E0EA0DFB1DAAEDB0E20E942F2D61
:103A90004091DA20A3E3B0E2AD90BB24AEECB0E2FB
:103AA000AA0DBB1D0C91041711F40C94691DE3E3DE
:103AB000F0E2A190BB24E9E5F1E0EA0DFB1DA3E3F0
:103AC000B0E2AD90BB24AEECB0E2AA0DBB1D0E94EB
:103AD0000D2DA3E3B0E28C918F5F8C9310F40C94C6
:103AE000171D0E94D21F0C9423053FBE81E00E9447
:103AF000FD2D85E00E94FD2DAC81BD818C91AA81B8
:103B0000BB818C9391E0AA81BB810E944F2EAA8138
:103B1000BB810C91043610F00C94D61DAA81BB8198
:103B20000C910A3010F00C94AD1DA881B981ECE81D
:103B3000F4E60E94302EA881B9810E94242BEA81EC
:103B4000FB810E940331A881B9810E94242BEEE8F9
:103B5000F4E60E94302E0C94BB1DA881B981EA8145
:103B6000FB810E940331A881B9810E94242BEEE8D9
:103B7000F4E60E94302EAC81BD810C9100FB16F062
:103B80000C94CC1DA881B9810E94242BE0E9F4E6B5
:103B90000E94302E0C94D41DA881B9810E94242B40
:103BA000E4E4F4E60E94302E0C94DC1DA881B98177
:103BB000E2E9F4E60E94302EE881F981AE81BF810E
:103BC0000E94903186E0481A80E0580A24960895B1
:103BD0003FBE85E00E94FD2DAA81BB810D911C9105
:103BE0000A3050E0150710F00C94061EA881B98128
:103BF000E8E9F4E60E94302EA881B9810E94242BC6
:103C0000EA81FB810E94F4300C94881EAA81BB815A
:103C10000D911C910A3050E0150781E008F480E016
:103C20008F93AA81BB810D911C91033650E015073B
:103C300081E010F009F080E09F918923882311F43E
:103C40000C94321EA881B981ECE9F4E60E94302E72
:103C5000A881B9810E94242BEA81FB810E94F43063
:103C60000C94881EAA81BB810D911C91043650E0F2
:103C7000150781E008F480E08F93AA81BB810D9144
:103C80001C91073E53E0150781E010F009F080E039
:103C90009F918923882311F40C945E1EA881B98119
:103CA000ECE8F4E60E94302EA881B9810E94242B12
:103CB000EA81FB810E94F4300C94881EAA81BB81AA
:103CC0000D911C91083E53E0150781E008F480E057
:103CD0008F93AA81BB810D911C910F3057E215077C
:103CE00081E010F009F080E09F918923882311F48E
:103CF0000C94821EA881B981EA81FB810E94F43074
:103D00000C94881EA881B981E0EAF4E60E94302E66
:103D1000E881F981AC81BD810E94903185E0481A2B
:103D200080E0580A229608953FBE84E00E94FD2D4F
:103D3000AA81BB810C910A3010F00C94AF1EA881AF
:103D4000B981ECE9F4E60E94302EA881B9810E9485
:103D5000242BEA81FB810E9403310C94DB1EAA8193
:103D6000BB810C910A3081E008F480E08F93AA8136
:103D7000BB810C91033681E010F009F080E09F9147
:103D80008923882311F40C94D51EA881B981ECE80D
:103D9000F4E60E94302EA881B9810E94242BEA818A
:103DA000FB810E9403310C94DB1EA881B981EA815A
:103DB000FB810E940331E881F981AC81BD810E94C1
:103DC000903184E0481A80E0580A22960895F894C9
:103DD0000F931F934F935F93AF93BF934FB74F933F
:103DE0005091B008009154220D3F78F4A5E5B2E25D
:103DF00010E0A00FB11F5D931C9303950093542214
:103E00004091CC204F7D4093CC204F914FBFBF912C
:103E1000AF915F914F911F910F9178941895F894FD
:103E200081E0AAEDB0E2E0EEF7E021E02A930E9403
:103E3000D52D78940091DA200F3F11F00C94D11F0A
:103E400081E08093DA20A2E1B2E24D915C91AAED8B
:103E5000B0E20D9111270417150718F011F00C941A
:103E6000BA1FAAEDB0E28C91ACEDB0E28D93882739
:103E70008C93ACEDB0E20E94DD2AACEDB0E20D9186
:103E80001C9148E050E00E94032EACEDB0E20D938F
:103E90001C93F89481E0E0EEF7E00E94832D789483
:103EA000F89455E581E0E0EEF7E00E94A82D7894C3
:103EB00081E08093332000913320083018F011F016
:103EC0000C94821F0091DC2040913320040FABED55
:103ED000B0E20C93F894ABEDB0E2AD90BB24A3E15B
:103EE000B2E2AA0DBB1D5C9181E0E0EEF7E00E941A
:103EF000A82D7894A3E3B0E28C918F5F8C9310F49B
:103F00000C945B1FF8945EEB81E0E0EEF7E00E941A
:103F1000A82D7894F89481E0ABEDB0E2E0EEF7E004
:103F200021E02A930E94D52D78940091DB200F3F49
:103F300011F00C94A71F8CEDAAEDB0E2AD90BB245C
:103F4000ABE3B0E2AA0DBB1D8C930C94B21F809121
:103F5000DB20AAEDB0E2AD90BB24ABE3B0E2AA0D4A
:103F6000BB1D8C93AAEDB0E28C918F5F8C9310F403
:103F70000C94231FF89481E0E0EEF7E00E94832D7B
:103F80007894F8945CEC81E0E0EEF7E00E94A82DD4
:103F90007894F89454E481E0E0EEF7E00E94A82DD4
:103FA000789408950091CD20003011F00C94F21F08
:103FB000AFECB0E28C91992780933C0990933D0936
:103FC000A0EDB0E28C91992780933A0990933B0938
:103FD000A1EDB0E28C91992780933809909339092B
:103FE0000C943020013011F00C940A2080E090E015
:103FF00080933C0990933D0980E090E080933A09DA
:1040000090933B0980E090E08093380990933909C0
:104010000C9430200091CD20023081E008F480E043
:104020008F930091CD20033081E010F009F080E003
:104030009F918923882311F40C94302080E090E034
:1040400080933C0990933D098FEF90E080933A096B
:1040500090933B0980E090E0809338099093390970
:1040600080E08093CE20089500912920003011F047
:104070000C9423218FE711E00E94492BE6EAF4E635
:104080000E94332B3FB6F894A0E2BEE2BA93AA9303
:10409000A9EFB1E2BA93AA930E94E81D24960E9468
:1040A0002B2BEAEAF4E60E94332B80913A0A8093A4
:1040B000DA20E4EFF3E60E94F82FEAEDF0E2D08098
:1040C000EE24FF2400270E94C42E0E94162FAEED7E
:1040D000B0E2DD92ED92FD920D93EEEDF0E20E94E2
:1040E000622EAAEDB0E2DC923FB6F894A0E2BEE206
:1040F000BA93AA93AAEDB0E2BA93AA930E94941E2F
:1041000024960E942B2BE0EBF4E60E94332B8FE8E1
:1041100011E00E94492BE2EBF4E60E94332B3FB6FC
:10412000F894A0E2BEE2BA93AA93ABEFB1E2BA93DD
:10413000AA930E94E81D24960E942B2BEAEAF4E63B
:104140000E94332B80913C0A8093DA20E4EFF3E65F
:104150000E94F82FEAEDF0E2D080EE24FF24002741
:104160000E94C42E0E94162FAEEDB0E2DD92ED92B9
:10417000FD920D93EEEDF0E20E94622EAAEDB0E208
:10418000DC923FB6F894A0E2BEE2BA93AA93AAEDFD
:10419000B0E2BA93AA930E94941E24960E942B2BFD
:1041A000E0EBF4E60E94332B8FE911E00E94492BEB
:1041B000E6EBF4E60E94332B3FB6F894A0E2BEE2B1
:1041C000BA93AA93ADEFB1E2BA93AA930E94E81D05
:1041D00024960E942B2BEAEAF4E60E94332B80916E
:1041E0003E0A8093DA20E4EFF3E60E94F82FEAED2E
:1041F000F0E2D080EE24FF2400270E94C42E0E940B
:10420000162FAEEDB0E2DD92ED92FD920D93EEED44
:10421000F0E20E94622EAAEDB0E2DC923FB6F89482
:10422000A0E2BEE2BA93AA93AAEDB0E2BA93AA932F
:104230000E94941E24960E942B2BE0EBF4E60E9431
:10424000332B0C949F22013011F00C9486218FE7C0
:1042500011E00E94492BEAEBF4E60E94332B009117
:104260002E21043610F00C943921ECE8F4E60E947B
:10427000332B00912E214AE00E94A331AAEDB0E237
:104280000C93A0E2BEE2EAEDF0E20E9403310E944C
:104290002B2BEEE8F4E60E94332B00912E214AE00E
:1042A0000E94A331AAEDB0E28C93A0E2BEE2EAED57
:1042B000F0E20E9403310E942B2BE6ECF4E60E9410
:1042C000332B8FE811E00E94492BEAECF4E60E94C0
:1042D000332B8FE911E00E94492BECEDF4E60E94AC
:1042E000332B3FB6F894A0E2BEE2BA93AA93A5EFAF
:1042F000B1E2BA93AA930E94E81D24960E942B2B48
:10430000E2EEF4E60E94332B0C949F22023011F06F
:104310000C94C0218FE711E00E94492BECEEF4E6EB
:104320000E94332BAFEFB1E20E942D2BE4EFF4E6B5
:104330000E94332B8FE811E00E94492BEAEFF4E64C
:104340000E94332B8FE911E00E94492BA4E0B2E2D6
:104350000E942D2BECE0F5E60E94332BA8E0B2E2A0
:104360000E942D2BECE0F5E60E94332BACE0B2E28C
:104370000E942D2BE0EBF4E60E94332B0C949F223D
:10438000033011F00C949F228FE711E00E94492B1B
:1043900000913020003018F011F00C94D1210C94D1
:1043A0000922ECE8F4E60E94332BA0E3B0E20D9181
:1043B000112745E050E00E94032EA7E4B0E2A00FD1
:1043C000B11F0E942D2BE0E1F5E60E94332B3FB692
:1043D000F894A0E2BEE2BA93AA93A0E3B0E2AD9053
:1043E000BB24A3E3B0E2AA0DBB1DBA93AA930E941B
:1043F000751D24960E942B2BECE8F4E60E94332BCB
:1044000082EF0E94D32BE4E1F5E60E94332B0C945B
:104410000D22E8E1F5E60E94332B8FE811E00E94BF
:10442000492B00913120003018F011F00C941A2221
:104430000C945222ECE8F4E60E94332BA1E3B0E2A4
:104440000D91112745E050E00E94032EA7E4B0E251
:10445000A00FB11F0E942D2BE0E1F5E60E94332B47
:104460003FB6F894A0E2BEE2BA93AA93A1E3B0E209
:10447000AD90BB24A3E3B0E2AA0DBB1DBA93AA93EF
:104480000E94751D24960E942B2BECE8F4E60E94F6
:10449000332B82EF0E94D32BE4E1F5E60E94332B0D
:1044A0000C945622E8E1F5E60E94332B8FE911E0E7
:1044B0000E94492B00913220003018F011F00C942A
:1044C00063220C949B22ECE8F4E60E94332BA2E3D7
:1044D000B0E20D91112745E050E00E94032EA7E4C1
:1044E000B0E2A00FB11F0E942D2BE0E1F5E60E9483
:1044F000332B3FB6F894A0E2BEE2BA93AA93A2E3AC
:10450000B0E2AD90BB24A3E3B0E2AA0DBB1DBA9309
:10451000AA930E94751D24960E942B2BECE8F4E6CA
:104520000E94332B82EF0E94D32BE4E1F5E60E9438
:10453000332B0C949F22E8E1F5E60E94332B08957B
:1045400080E08093F62000912920023011F00C9435
:10455000AC2283E08093292000912920013011F0C2
:104560000C94C3220091D920003018F011F00C9463
:10457000BB220C94C02282E0809329200C94C32299
:1045800083E08093292000912920003011F00C94C1
:10459000E8220091D820003018F011F00C94D222BB
:1045A0000C94D72281E0809329200C94E82200917A
:1045B000D920003018F011F00C94E0220C94E52280
:1045C00082E0809329200C94E82283E080932920C4
:1045D00000912E20093111F00C94FE2201E010E030
:1045E00020E030E0AAE2B0E20D931D932D933C93BE
:1045F00081E080932E2080E0809329200091292063
:10460000033011F00C94E724A7EDB0E28C91A2EEF8
:10461000B0E28D9388278D938D938C9398E0A2EED2
:10462000B0E20E943E2EA2EEB0E20D911D912D91BE
:104630003C91A6EDB0E24C915527662777270E9462
:10464000812CA2EEB0E20D931D932D933D9398E043
:10465000A2EEB0E20E943E2EA2EEB0E20D911D91BC
:104660002D913C91A5EDB0E24C9155276627772717
:104670000E94812CA2EEB0E20D931D932D933D93E9
:1046800000912E20093110F00C948B23A2EEB0E2A1
:104690000D911D912D913C91AAE2B0E24D915D9159
:1046A0006D917C910E94862CA6EEB0E20D931D9335
:1046B0002D933D9340E050E060E070E0A6EEB0E264
:1046C0000D911D912D913C910E94E1301CF011F053
:1046D0000C946C230C94722380912E2080933020B4
:1046E0000C948B23AEE2B0E28C918F5F8C93AAE2A4
:1046F000B0E20D911D912D913C9142E050E060E0BF
:1047000070E00E940D2EAAE2B0E20D931D932D934E
:104710003D930C94402300912E20093110F00C940D
:10472000AA23AEE2B0E28C918F5F8C93AAE2B0E252
:104730000D911D912D913C9142E050E060E070E0C0
:104740000E940D2EAAE2B0E20D931D932D933D938E
:104750000C94AD2380E08093302000912E2009310D
:1047600010F00C94F823A2EEB0E20D911D912D9162
:104770003C91AAE2B0E24D915D916D917C910E94D5
:10478000862CA6EEB0E20D931D932D933D9340E051
:1047900050E060E070E0A6EEB0E20D911D912D9129
:1047A0003C910E94E1301CF011F00C94D9230C9440
:1047B000DF2380912E20809331200C94F823AEE2E9
:1047C000B0E28C918F5F8C93AAE2B0E20D911D91C3
:1047D0002D913C9142E050E060E070E00E940D2E8F
:1047E000AAE2B0E20D931D932D933D930C94AD235B
:1047F00000912E20093110F00C941724AEE2B0E2A3
:104800008C918F5F8C93AAE2B0E20D911D912D9156
:104810003C9142E050E060E070E00E940D2EAAE280
:10482000B0E20D931D932D933D930C941A2480E0D8
:104830008093312000912E20093110F00C946524D2
:10484000A2EEB0E20D911D912D913C91AAE2B0E251
:104850004D915D916D917C910E94862CA6EEB0E207
:104860000D931D932D933D9340E050E060E070E088
:10487000A6EEB0E20D911D912D913C910E94E13088
:104880001CF011F00C9446240C944C2480912E20A2
:10489000809332200C946524AEE2B0E28C918F5F5D
:1048A0008C93AAE2B0E20D911D912D913C9142E0D2
:1048B00050E060E070E00E940D2EAAE2B0E20D939D
:1048C0001D932D933D930C941A2400912E200931B1
:1048D00010F00C94E424AEE2B0E28C918F5F8C93E4
:1048E000AAE2B0E20D911D912D913C9142E050E081
:1048F00060E070E00E940D2EAAE2B0E20D931D93DD
:104900002D933D9380912E208093DA20AAE2B0E28D
:104910000D911D912D913C91AAEEB0E20D931D9346
:104920002D933C930091DA20093110F00C94D92496
:10493000A2EEB0E20D911D912D913C91AAEEB0E254
:104940004D915D916D917C910E94862CA6EEB0E216
:104950000D931D932D933D9340E050E060E070E097
:10496000A6EEB0E20D911D912D913C910E94E13097
:104970001CF011F00C94BE240C94C0240C94D92487
:10498000AAEDB0E28C918F5F8C93AAEEB0E20D910C
:104990001D912D913C9142E050E060E070E00E945A
:1049A0000D2EAAEEB0E20D931D932D933D930C9422
:1049B00092240091DA20093111F00C94E22489E16B
:1049C00080932E200C94E72480E0809332200E9474
:1049D0003420089581E08093332000913320083003
:1049E00018F011F00C9440250091332041E0041B95
:1049F000AAEDB0E20C9393E0AAEDB0E20E94362E4D
:104A0000AAEDB0E28C91809321022FEF80E0ACED13
:104A1000B0E2E0E0F2E00E94452DACEDB0E20D9195
:104A20001C910F3F5FE0150711F00C9423258CEDCE
:104A3000A3E3B0E2AD90BB24A3E3B0E2AA0DBB1D9B
:104A40008C930C94382593E0ACEDB0E20E94572E85
:104A5000E8EBF3E5ACEDB0E28D919C91A3E3B0E21D
:104A6000AD90BB24A3E3B0E2AA0DBB1D0E940D30A4
:104A7000A3E3B0E28C918F5F8C9310F40C94ED243F
:104A8000089500913321013018F011F00C944A255B
:104A90000C945125809133218150809333210C94C3
:104AA0005F25013011F00C945F25809133218150F6
:104AB00080933321A0E3B1E28C918F5F8C930091BE
:104AC0006A21013018F011F00C9468250C946F25C0
:104AD00080916A21815080936A210C947D25013058
:104AE00011F00C947D2580916A21815080936A2178
:104AF000A7E6B1E28C918F5F8C930091A1210130E8
:104B000018F011F00C9486250C948D258091A1212C
:104B100081508093A1210C949B25013011F00C94BD
:104B20009B258091A12181508093A121AEE9B1E222
:104B30008C918F5F8C930091FA20013018F011F066
:104B40000C94A4250C94AB258091FA20815080937D
:104B5000FA200C94B925013011F00C94B9258091FC
:104B6000FA2081508093FA20A7EFB0E28C918F5FFA
:104B70008C930895ACECB0E20C9104FB16F00C940D
:104B8000EA2580E08093D92081E080933320009152
:104B90003320083018F011F00C94E825A3E3B0E2BC
:104BA000AD90BB24A3ECB0E2AA0DBB1D8C91A3E396
:104BB000B0E2AD90BB24A3E4B0E2AA0DBB1D8C9380
:104BC000A3E3B0E28C918F5F8C9310F40C94C72513
:104BD0000C94ED2581E08093D9207091CC207061F8
:104BE0007093CC200895ACECB0E20C9100FB16F071
:104BF0000C94142680E090E0A5EFB1E28D939C9395
:104C00000091F720023011F00C940D267091D621FE
:104C100071607093D6210C9412267091D6217E7FFC
:104C20007093D6210C94AA26AAEDB1E28C918F5FE5
:104C30008C93A5EEB1E20D911C9122273327A8EDAC
:104C4000B1E24D915C91662777270E940D2EA2EE6E
:104C5000B0E20D931D932D933D9300E41AE329E6F2
:104C60003DE0A2EEB0E24D915D916D917C910E948C
:104C70002D2CA2EEB0E24D935D936D937D938091C8
:104C8000E220AAEDB1E2AD90BB24AAEDB1E2AA0DFB
:104C9000BB1D8C930091DA210A3011F00C9453263D
:104CA00080E08093DA2181E08093332000913320EB
:104CB0000A3018F011F00C947F26A2EEB0E20D91AC
:104CC0001D912D913C91A3E3B0E2AD90BB24AAEDE0
:104CD000B1E2AA0DBB1D4C915527662777270E948C
:104CE000DC30A2EEB0E20D931D932D933D93A3E330
:104CF000B0E28C918F5F8C9310F40C945626A2EE48
:104D0000B0E20D911C9145E050E00E940A2BA5EF06
:104D1000B1E24D935C93A7EFB1E24D915C91A5EFA9
:104D2000B1E20D911C910417150710F40C949F2605
:104D30007091D6217E7F7093D6210C94AA26009183
:104D4000F720023011F00C94AA267091D6217160E0
:104D50007093D621ACECB0E20C9101FB16F00C94F0
:104D6000CB2680E090E0A9EFB1E28D939C93009177
:104D70003021023011F00C94C4267091D62170615C
:104D80007093D6210C94C9267091D6217F7E7093A2
:104D9000D6210C94FC26A9EEB1E20D911C9122279C
:104DA000332742E050E060E070E00E940D2EA2EE5A
:104DB000B0E20D931D932D933D9300EE10E722E793
:104DC00030E0A2EEB0E24D915D916D917C910E9438
:104DD0002D2CA2EEB0E24D935D936D937D93A2EEE8
:104DE000B0E28D919C91A9EFB1E28D939C9370916B
:104DF000D6217F7E7093D621ACECB0E20C9102FB01
:104E000016F00C941D2780E090E0ABEFB1E28D939B
:104E10009C9300916721023011F00C941627709139
:104E2000D62178607093D6210C941B277091D621DF
:104E3000777F7093D6210C944E27ADEEB1E20D91A1
:104E40001C912227332742E050E060E070E00E948E
:104E50000D2EA2EEB0E20D931D932D933D9300EE27
:104E600010E722E730E0A2EEB0E24D915D916D9146
:104E70007C910E942D2CA2EEB0E24D935D936D9338
:104E80007D93A2EEB0E28D919C91ABEFB1E28D9358
:104E90009C937091D621777F7093D621ACECB0E2D1
:104EA0000C9103FB16F00C946F2780E090E0ADEFBF
:104EB000B1E28D939C9300919E21023011F00C94ED
:104EC00068277091D62174607093D6210C946D2759
:104ED0007091D6217B7F7093D6210C94A027A1EFEF
:104EE000B1E20D911C912227332742E050E060E0AF
:104EF00070E00E940D2EA2EEB0E20D931D932D9353
:104F00003D9300EE10E722E730E0A2EEB0E24D91D3
:104F10005D916D917C910E942D2CA2EEB0E24D939B
:104F20005D936D937D93A2EEB0E28D919C91ADEF78
:104F3000B1E28D939C937091D6217B7F7093D621A3
:104F4000F894ACECB0E20C9105FB16F00C94AF2792
:104F500080E080935422A5E5B2E288278C93789470
:104F6000ACECB0E28C918F6E8C930895A7EDB1E21A
:104F70008C9187FB16F00C94D6270091D621409196
:104F8000D5210423AAEDB0E20C930091DA20003081
:104F900018F011F00C94CE270C94D32771E0709385
:104FA000E7070C94D62771E07093E6070895A7ED04
:104FB000B1E28C9187FB16F00C940B287091D721ED
:104FC0007F777093D72171E07093E5078AE090E0D6
:104FD0000E94972C71E07093E60782E390E00E94B4
:104FE000972C71E07093E5078AE090E00E94972C7F
:104FF00071E07093E60782E390E00E94972C71E0E5
:105000007093E5078AE090E00E94972C71E070931E
:10501000E6070C941A287091D72170687093D721F5
:1050200071E07093E50784E690E00E94972C71E0B0
:105030007093E607089500912820003018F011F0D1
:105040000C9424280C941529EAE2F5E681E08A9371
:105050000E94C22C81E080933320009133200031E4
:1050600018F011F00C945228A0E2BEE2E3E3F0E263
:10507000A190BB24E3E3F0E2EA0DFB1D0E940331A3
:1050800081E08A930E94B92CECE1F4E681E08A93F6
:105090000E94C22CA3E3B0E28C918F5F8C9310F43A
:1050A0000C942D28A6EDB1E28C9181FBA0E2BEE22A
:1050B0000E9420308D9388278C9381E08A930E94F0
:1050C000B92CA6EDB1E28C9182FBA0E2BEE20E9477
:1050D00020308D9388278C9381E08A930E94B92C8D
:1050E000A6EDB1E28C9180FBA0E2BEE20E942030EE
:1050F0008D9388278C9381E08A930E94B92CECE1F0
:10510000F4E681E08A930E94C22CA0E2BEE2E5EFC1
:10511000F1E20E94F43081E08A930E94B92CECE124
:10512000F4E681E08A930E94C22CA0E2BEE2E9EF9D
:10513000F1E20E94F43081E08A930E94B92CECE104
:10514000F4E681E08A930E94C22CA0E2BEE2EBEF7B
:10515000F1E20E94F43081E08A930E94B92CECE1E4
:10516000F4E681E08A930E94C22CA0E2BEE2EDEF59
:10517000F1E20E94F43081E08A930E94B92CECE1C4
:10518000F4E681E08A930E94C22C80913A0A8093CF
:10519000DA20A0E2BEE2EAEDF0E20E94033181E013
:1051A0008A930E94B92CECE1F4E681E08A930E9494
:1051B000C22C80913C0A8093DA20A0E2BEE2EAEDA4
:1051C000F0E20E94033181E08A930E94B92CECE165
:1051D000F4E681E08A930E94C22C80913E0A80937B
:1051E000DA20A0E2BEE2EAEDF0E20E94033181E0C3
:1051F0008A930E94B92CECE1F4E681E08A930E9444
:10520000C22CA0E2BEE2EEE2F1E20E94033181E0B4
:105210008A930E94B92CECE1F4E681E08A930E9423
:10522000C22C81E08A930E94CA2C08950091D2205A
:105230004FE00423A3EDB0E20C93A3EDB0E28C9118
:1052400080598C938091D2208093D42094E0A4ED57
:10525000B0E20E944F2EA4EDB0E28C9183708C934B
:10526000A4EDB0E28C918C5A8C9389E2A6D2809105
:10527000D320A3D28091D420A0D288E29ED20895D8
:10528000F8940F931F934F935F934FB74F930091F1
:105290002808109129084091E7215091E8210093B6
:1052A000E7211093E821041B150B48F00093E5213A
:1052B0001093E6214091CC204E7F4093CC204F911B
:1052C0004FBF5F914F911F910F9178941895F8946B
:1052D0000F931F934F935F934FB74F9300912A08FB
:1052E00010912B084091EB215091EC210093EB2180
:1052F0001093EC21041B150B48F00093E921109347
:10530000EA214091CC204D7F4093CC204F914FBF5C
:105310005F914F911F910F9178941895F8940F9386
:105320001F934F935F934FB74F9300912C081091A9
:105330002D084091EF215091F0210093EF2110931F
:10534000F021041B150B48F00093ED211093EE2182
:105350004091CC204B7F4093CC204F914FBF5F9129
:105360004F911F910F9178941895F8940F931F9374
:105370004F935F934FB74F9300912E0810912F08D2
:105380004091F3215091F4210093F3211093F421E3
:10539000041B150B48F00093F1211093F22140916A
:1053A000CC20477F4093CC204F914FBF5F914F91CE
:1053B0001F910F9178941895C6C6C6C6C6C6C6C6B4
:1053C000C6C6C6C6C6C6C6C6C6C6C6C6C6C6C6C67D
:1053D000C6C6C6C6C6C6C6C6C6C6C6C6C6C6C6C66D
:1053E000C6C5C3C1BFBDBBB9B7B6B4B3B1AFAEAC30
:1053F000ABAAA8A7A6A4A3A2A19F9E9D9C9B9A9995
:105400009896959493929191908F8E8D8C8B8A899A
:105410008988878685858483828181807F7F7E7D60
:105420007C7C7B7A7A797878777776757574737304
:1054300072727171706F6F6E6E6D6D6C6C6B6B6A8A
:105440006A696968686767666665656464636362FC
:105450006262616160605F5F5E5E5E5D5D5C5C5C60
:105460005B5B5A5A5A5959585858575757565655B8
:105470005555545454535353525252515151505004
:10548000504F4F4F4E4E4E4D4D4D4C4C4C4B4B4B49
:105490004A4A4A4A49494948484847474747464689
:1054A00046454545454444444443434342424242C1
:1054B00041414141404040403F3F3F3F3E3E3E3EF4
:1054C0003D3D3D3D3C3C3C3C3B3B3B3B3A3A3A3A24
:1054D0003939393939383838383737373736363651
:1054E0003636353535353534343434333333333378
:1054F0003232323232313131313130303030302F9E
:105500002F2F2F2F2E2E2E2E2E2D2D2D2D2D2C2CC0
:105510002C2C2C2B2B2B2B2B2B2A2A2A2A2A2929E1
:1055200029292929282828282827272727272726FF
:10553000262626262625252525252424242424241C
:105540002323232323232222222222222121212139
:105550002121212020202020201F1F1F1F1F1F1E50
:105560001E1E1E1E1E1E1D1D1D1D1D1D1C1C1C1C69
:105570001C1C1C1B1B1B1B1B1B1A1A1A1A1A1A1A7F
:105580001919191919191918181818181818171796
:1055900017171717171616161616161615151515AA
:1055A00015151514141414141414141313131313BD
:1055B000131312121212121281E0ED91FC91E150BC
:1055C000F040FC93EE93089509D00E94032E00FC56
:1055D00010D0089503D01ED001F8F9CF0024E8942C
:1055E00057FF02C009D0689400F80BD010F80124CE
:1055F000089502D009D00895509540954F5F5F4FB0
:105600000895E89417FF0895009510950F5F1F4FB8
:1056100068940895352F242FE894452B11F468944D
:105620000895512F402F0027112780E1440F551F67
:10563000001F111F021B130B416018F4020F131FF0
:105640004E7F8A9599F708958F938D918823E9F776
:1056500011978F910895A0E2BEE28D91882311F0F9
:10566000A2D0FBCF08950E94F42F802D11F09BD083
:10567000FACF089581E0A1D015D080E89EC08FE7D1
:10568000213039F08FE8223021F08FE9233009F002
:1056900083ED810F0C94DD2B88EE93E048D1319798
:1056A000D9F7089583E0992742C18AEF90E00E94DC
:1056B000972C70E27093410670E17093410678E098
:1056C0007093410674E07093410674E07093210674
:1056D00078E07093210678E07093260685E090E0EC
:1056E0000E94972C74E07093260670E27093460631
:1056F00070E17093460678E07093450674E070930D
:10570000450674E070932506EF93FF93ECE1F3E018
:105710000E948B2CFF91EF9174E07093260604D1C8
:1057200074E070932506EF93FF93ECE1F3E00E94A1
:105730008B2CFF91EF9174E070932606F5D074E006
:1057400070932506EF93FF93ECE1F3E00E948B2C1E
:10575000FF91EF9174E070932606E6D074E07093A9
:10576000460674E070932506EF93FF93ECE1F3E0B7
:105770000E948B2CFF91EF9174E070932606D4D099
:1057800089E21BD085E119D085E517D08EE615D0CA
:1057900080E713D088E211D088E20FD08EE00DD0E0
:1057A00086E00BD0089570912406786070932406EB
:1057B000829509D008D0B8D0089570912406777FDB
:1057C00070932406F5CF859530F47091440674608B
:1057D0007093440605C0709144067B7F7093440625
:1057E000859530F47091440678607093440605C046
:1057F00070914406777F70934406859530F47091DC
:10580000440670617093440605C0709144067F7E23
:1058100070934406859530F47091440670627093DD
:10582000440605C0709144067F7D709344067091D4
:105830002406746070932406EF93FF93ECE1F3E089
:105840000E948B2CFF91EF91709124067B7F7093C7
:105850002406089500FC05D0089530D005D001F845
:10586000F9CF37D03FD00895842F952FA62FB72F8B
:10587000E894452B462B472B11F468940895402F4C
:10588000512F622F732F0027112722273327F0E291
:10589000440F551F661F771F001F111F221F331F44
:1058A000081B190B2A0B3B0B416028F4080F191F2A
:1058B0002A1F3B1F4E7FFA9559F708950024E8945C
:1058C00077FF02C006D0689400F809D010F80124D0
:1058D000089512D04F5F5F4F6F4F7F4F0895E89448
:1058E00037FF089500951095209530950F5F1F4F55
:1058F0002F4F3F4F6894089540955095609570954F
:105900000895042B152B262B372B089504231523DC
:105910002623372308953197F1F70895689462F8A4
:105920000895E89462F8089581E090E000C0EF9354
:10593000FF93EE27E82BE92B31F0E0E4FFE131970C
:10594000F1F70197D1F7FF91EF9108957991A0EACE
:10595000769508F4A0EBB8E0B70F0895F7DF14963A
:1059600088E18D9389918D9389918D9389918D9300
:105970000895A0E2BEE28D91882311F00FD0FBCFF5
:10598000219608950E94F42F802D11F007D0FACFB0
:10599000219608958DE002D08AE002C078817A9342
:1059A000BF93AF93D3DF11967C9175FFFDCF119715
:1059B0008C93AF91BF9108958F939F93AF93BF93B3
:1059C000882790E2A0E0B0E28D939A95E9F7BF9125
:1059D000AF919F918F9108958F9380910020881FA0
:1059E0008093002080910120881F80930120809166
:1059F0000220881F8093022080910320881F8093BB
:105A0000032080910420881F809304208F910895A3
:105A10007091CF0177FDFCCF089591E001C092E035
:105A2000E050F04FF5DF8D910024E093C001F0933A
:105A3000C1010092C201819375E37093CA0178EDB0
:105A40007093340071E07093CB019A9559F70895E3
:105A5000E050F04F91E0E6DF8823E1F7089591E010
:105A600001C092E0E050F04FD3DF81918D939A9581
:105A7000D9F70895E050F04FCBDF81918D938823C3
:105A800019F09A95C9F79D9308953327982F990F88
:105A900001E0882321F0000F385F8A95E1F72F3F5E
:105AA00039F0BF01B196E30F3327F31F2083FB01C9
:105AB0000683802F880F880F81601081107C182B3F
:105AC000108386818023E9F37096E90F9927F91FE7
:105AD00081918D9381918D93089542E0FF274093AA
